:020000040800F2
:1000000060070020DD010008DB030008870300080B
:10001000D9030008C7020008F90800080000000022
:100020000000000000000000000000004501000882
:10003000E50200080000000089010008010700082F
:10004000F7010008F7010008F7010008F7010008B0
:10005000F7010008F7010008F7010008F7010008A0
:10006000F7010008F7010008F7010008F701000890
:10007000F7010008F7010008F7010008C9020008AD
:10008000F7010008F7010008F7010008F701000870
:10009000F7010008F7010008F7010008F701000860
:1000A000F7010008F7010008F7010008F701000850
:1000B000F7010008F7010008F7010008F701000840
:1000C000F7010008F7010008F7010008F701000830
:1000D000F701000865070008F7010008F7010008AC
:1000E000F7010008F7010008F7010008F701000810
:1000F000F7010008F7010008F7010008F701000800
:10010000F7010008F7010008F7010008F7010008EF
:10011000F7010008F7010008F7010008F7010008DF
:10012000F7010008F7010008F7010008F7010008CF
:10013000DFF80CD000F096F8004800477D0E00086C
:1001400060070020224B19680868B0E8F00F80F3C0
:100150000988BFF36F8F4FF0000080F311884EF0D5
:100160000D0E70470000000006480068006880F32C
:10017000088862B661B6BFF34F8FBFF36F8F00DFA1
:1001800000BF00BF08ED00E0EFF30980BFF36F8F01
:100190000F4B1A6820E9F00F106008B54FF05000BF
:1001A00080F31188BFF34F8FBFF36F8F01F000F81A
:1001B0004FF0000080F31188BDE808401968086816
:1001C000B0E8F00F80F30988BFF36F8F704700BF6E
:1001D00030000020EFF3058070470000064880479C
:1001E00006480047FEE7FEE7FEE7FEE7FEE7FEE71C
:1001F000FEE7FEE7FEE7FEE715070008310100080D
:100200002DE9F05F0546002092469B46884606464B
:10021000814640241BE0284641464746224600F0DE
:1002200042F853465A46C01A914110D31146184617
:10023000224600F029F82D1A67EB01084F462246A6
:100240000120002100F020F817EB00094E41201E8C
:10025000A4F10104DFDC484631462A464346BDE8A6
:10026000F09F0000064C074D06E0E06840F00103F7
:1002700094E8070098471034AC42F6D3FFF75CFFD0
:100280004014000860140008202A04DB203A00FA19
:1002900002F1002070479140C2F1200320FA03F3DD
:1002A000194390407047202A04DB203A21FA02F0DB
:1002B0000021704721FA02F3D040C2F120029140A0
:1002C000084319467047FEE70449012008700448B6
:1002D00000880348001D00887047000018000020B7
:1002E000003801407047F0B5CC78002204F00F03CD
:1002F000E40601D58C7823430C784FF00F0C14F0F2
:10030000FF0F4FF0010E1BD005680E880EFA02F4A5
:100310002640A64210D196000CFA06F725EA0707F8
:1003200003FA06F5CE783D43282E02D0482E02D09F
:1003300002E0446100E00461521C082AE5D3056034
:100340000A88FF2A1CD94468002202F108060EFA26
:1003500006F50E882E40AE420ED196000CFA06F736
:10036000BC4303FA06F7CE783C43282E00D1456102
:10037000CE78482E00D10561521C082AE5D344608E
:10038000F0BD01617047FEE738B50121482000F05B
:100390006DF82024ADF8004010208DF803000320F4
:1003A0000B4D8DF8020069462846FFF79CFF20217F
:1003B0002846FFF7E6FFADF80040064C69462046A8
:1003C000FFF791FF20212046FFF7DBFF38BD00003B
:1003D000000C014000180140FEE7704730B50F23C4
:1003E000C27801780125F2B1144A126801F1E021C6
:1003F00002F4E062C2F5E062120AC2F10404D340E2
:100400004278A24084781C401443220181F80024E1
:10041000007800F01F018D404009800000F1E020CD
:10042000C0F8005130BD01F01F0085404809800030
:1004300000F1E020C0F8805130BD00000CED00E07C
:100440000249084302490860704700000000FA05AD
:100450000CED00E0044A0029D16901D0014300E01D
:100460008143D1617047000000100240044A002916
:10047000916901D0014300E0814391617047000020
:100480000010024030B5204A5168204B11F00C0199
:1004900003D0042901D0082901D0036012E051687B
:1004A000536801F470114FF0020413F4803F04EB21
:1004B000914102D053689B0301D5154B00E0134BCB
:1004C0005943016051680F2303EA1111114B5C5C21
:1004D0000168E14041605468072505EA14241C5D69
:1004E00021FA04F48460546805EAD4241B5DD940E1
:1004F000C1605268032303EA9232064B1B1F9A5CC9
:10050000B1FBF2F1016130BD0010024000127A002F
:1005100000093D001E0000200029018802D041F0A2
:10052000400101E021F040010180704710B586B024
:1005300000F028F83820ADF80C000120ADF80800D4
:100540000220ADF806000720ADF810000020ADF83D
:100550000400ADF80000ADF80E004FF48270ADF865
:1005600002004FF40070064CADF80A0069462046C0
:1005700000F04AF801212046FFF7CEFF06B010BD7B
:1005800000380040F8B501218F033846FFF762FFBD
:1005900001210820FFF75EFF7810ADF8000003246A
:1005A000184E8DF8024018258DF8035069463046E4
:1005B000FFF799FE7800ADF800008DF802408DF845
:1005C000035069463046FFF78EFEADF800708DF897
:1005D000024004208DF8030069463046FFF783FE91
:1005E000B514ADF800508DF8024010208DF80300CE
:1005F00069463046FFF777FE29463046FFF7C1FED1
:10060000F8BD0000000C014030B502884C8802F4AF
:1006100041530A88CD8822438C882C4322430C897D
:1006200022434C8922438C892243CC8922431A439A
:100630000280828B22F400628283098A018230BDAB
:100640000CB50022264800920192016841F48031E5
:1006500001604FF4A063016801F400310191009939
:10066000491C0091019911B900999942F3D101688F
:10067000890333D5012101911A490A6842F0100219
:100680000A600A6822F003020A600A6842F0020265
:100690000A604168416041684160416841F480619D
:1006A0004160416821F47C114160416841F4E811E6
:1006B0004160016841F08071016001688901FCD5E9
:1006C000416821F003014160416841F0020141604D
:1006D0004168C1F381010229FAD10CBD01920CBD20
:1006E00000100240002002404FF0E0210428086979
:1006F00003D020F004000861704740F00400FAE7DE
:1007000010B500F0A9FD012803D0BDE8104000F0AD
:100710008DBD10BD0F4810B5016841F001010160A9
:1007200041680D4A1140416001680C4A1140016066
:10073000016821F480210160416821F4FE014160DB
:100740004FF41F018160FFF77BFF05494FF0006008
:10075000086010BD001002400000FFF8FFFFF6FE29
:1007600008ED00E070B50C4C40F2255529462046B6
:1007700000F02DF800280ED0204600F0B5F8C1B2E8
:1007800006484170204600F0B3F829462046BDE8EF
:10079000704000F005B870BD00380140180000201E
:1007A0000A0A01219140C9430180704700298189CB
:1007B00002D041F4005101E021F4005181817047E1
:1007C0000246002012880A4200D00120704770B50E
:1007D00001F01F0501260024C1F3421306FA05F2B9
:1007E000012B0FD0022B0FD0838A4FEA11210088F2
:1007F000134206FA01F600EA060001D000B1012416
:10080000204670BD8389F0E7038AEEE710B5C1F397
:10081000421301F01F040121A140012B07D0022B3C
:1008200007D01430002A026805D00A4304E00C30D7
:10083000F8E71030F6E78A43026010BD30B5044691
:10084000008A85B00D464CF6FF710840E9880143E7
:100850002182A0894EF6F3110840A9882A89114304
:100860006A8902431143A181A08A4FF6FF410840E3
:10087000A9890143A1826846FFF704FE1948844212
:1008800001D1039800E00298A189090400EBC0019E
:1008900001EB0010296801D5490000E08900B0FB98
:1008A000F1F06422B0FBF2F109010B096FF01805B9
:1008B0006B4300EB8300A3891D044FF0320306D580
:1008C00003EBC000B0FBF2F000F0070005E003EB23
:1008D0000010B0FBF2F000F00F000843208105B0DB
:1008E00030BD0000003801408088C0F30800704728
:1008F000C1F3080181807047FEE7FFF717BE0000D3
:100900000FB4054B10B503A9044A029800F018F87B
:1009100010BC5DF814FB0000590E000878000020A0
:1009200002E008C8121F08C1002AFAD170477047B8
:10093000002001E001C1121F002AFBD17047000016
:100940002DE9FF4F8DB00F460546002606E025280D
:100950000BD0DDE90F1290476D1C761C287800281B
:10096000F5D111B03046BDE8F08F0024A246A14673
:100970000122EC4900E0044315F8013F203B02FA54
:1009800003F00842F7D128782A2810D06FF02F0200
:100990002878A0F13001092914D80AEB8A0102EB6A
:1009A000410144F0020400EB010A6D1CF0E701CFA5
:1009B0005FEA000A03D544F40054CAF1000A44F087
:1009C00002046D1C28782E2817D115F8010F44F069
:1009D00004042A280ED06FF02F022878A0F13001ED
:1009E00009290AD809EB890102EB410100EB010951
:1009F0006D1CF2E757F8049B6D1C28786C280FD00B
:100A000006DC4C2817D068280DD06A2814D104E0E1
:100A1000742810D07A280FD10DE044F400140AE0B5
:100A200044F4801401E044F440146978814202D116
:100A300004F580146D1C6D1C2A786E2A1FD00CDC06
:100A4000632A31D004DC002A8BD0582A11D1A3E0CC
:100A5000642A68D0692A0CD165E0732A2ED004DCA0
:100A60006F2A73D0702A04D19BE0752A6FD0782A40
:100A70006ED01046DDE90F129047761C50E1C4F3AA
:100A80000250022806D0032809D0042801CF09D03B
:100A9000066045E101CFF117C0E9006140E101CFF7
:100AA00006803DE106703BE117F8040B8DF800006D
:100AB00000208DF80100EB46012003E057F804BB4D
:100AC0004FF0FF3061074FF0000102D40DE008F154
:100AD0000101884649450FDA8045F8DB1BF808100C
:100AE0000029F4D108E008F1010188468142FADBCF
:100AF0001BF808100029F6D1DDE90F23AAEB080046
:100B00008146214600F036F9304400EB080604E047
:100B1000DDE90F121BF8010B9047B8F10108F7D27D
:100B200021464846F7E00A21C4F302534FF0000B78
:100B30000891022B04D001CFC117032B09D00AE082
:100B4000FF1D27F00707F7E8020108E032E01FE089
:100B500020E000B2C117042B01D140B2C117031E1F
:100B600071F1000307DA4FF0000CD0EB0C006CEBD6
:100B700001012D2302E0230504D52B238DF8243019
:100B8000012303E0E30701D02023F7E7984658E06C
:100B90000A2110E010210EE010204FF0000B089009
:100BA0000CE010214FF0000B44F004044FF0080952
:100BB000089103E008214FF0000B0891C4F30253A1
:100BC000022B04D001CF0021032B06D006E0FF1D2D
:100BD00027F00707F7E8020103E080B2042B00D1F9
:100BE000C0B24FF0000823072BD5702A07D0DDF8DC
:100BF00020C08CF0100C5CEA0B0C05D00EE04023FA
:100C00008DF82430012308E050EA010306D0302398
:100C10008DF824308DF8252002239846DDF820C079
:100C20008CF0080C5CEA0B0C0BD150EA010301D1EB
:100C3000630706D530238DF824304FF00108A9F161
:100C40000109582A04D038A20B9208AA0A920BE094
:100C50003AA2F9E75B46089AFFF7D2FA0B9B9B5C36
:100C60000A9A521E0A92137050EA0102F2D10A98AF
:100C7000ADEB000000F1200B600702D524F48034B6
:100C800001E04FF00109D94502DDA9EB0B0000E0BE
:100C9000002000EB0B0141440890AAEB010AE0039D
:100CA00006D4DDE90F232146504600F063F80644E0
:100CB0004FF0000908E009A911F80900DDE90F1259
:100CC000904709F10109761CC145F4DBE0030CD51E
:100CD000DDE90F232146504600F04CF8064404E0BD
:100CE000DDE90F1230209047761C0899481E0890C5
:100CF0000029F5DC08E00A980A990078491C0A9155
:100D0000DDE90F129047761CBBF10001ABF1010B3E
:100D1000F1DC21465046DDE90F2300F019F80644C6
:100D20006D1C1BE60928010030313233343536376B
:100D30003839616263646566000000003031323327
:100D400034353637383941424344454600000000C7
:100D50002DE9F041044600251E461746880404D4B8
:100D600005E039462020B0476D1C641EF9D52846A1
:100D7000BDE8F0812DE9F041044600251E4690466D
:100D8000C80301D5302700E02027880404D505E0FA
:100D900041463846B0476D1C641EF9D52846BDE86B
:100DA000F081000010B50420FFF79EFC0C480D49AF
:100DB0000D4A0068B0FBF1F3B0FBF1F14FF47A702B
:100DC00041431370012050804FF0E020026942F04F
:100DD000020202614161016941F00101016110BD3E
:100DE0000000002040420F001400002070B50446AF
:100DF00000F032FA01280CD0094D6888844203D3F0
:100E0000B4FBF0F000F096F96888B4FBF0F100FB59
:100E100011444FF47A706043BDE8704000F002B8AE
:100E20001400002070B54FF0E02500216C69094ADC
:100E3000AB6912785043AA699A42FCD002D2A3EB64
:100E4000020302E0A4EB0206334419441346814234
:100E5000F1D370BD1400002070B5074D0446C1B237
:100E60002846FFF745FD80212846FFF7A9FC00280A
:100E7000F9D0204670BD0000003801404FF44070AA
:100E8000FFF7DEFAFFF78EFF4FF4E13000F05EF877
:100E9000FFF77AFAFFF731FD074C4FF42F75D4F8BE
:100EA000940130B10021C4F894112846FFF79EFF49
:100EB000F5E70121F7E70000008021422DE9F0412C
:100EC000184E0F460446F5683068001D00F08EF895
:100ED00038B9306890F82C1001208840316981437E
:100EE0003161601C07D137B13168BDE8F0410E486F
:100EF000091D00F0A5B830682C44AC42446031684C
:100F000005D2B06BBDE8F041091D00F081B8706BEF
:100F1000091D00F07DF8B06A844200D2B462BDE8D9
:100F2000F0810000300000204C0300200648416B97
:100F3000096829B1416BC968C9684968816270470D
:100F40004FF0FF31FAE700003000002070B5054691
:100F500086B0012144F20400FFF788FA4FF40070D4
:100F6000ADF8100003248DF8124018201D4E8DF8A6
:100F7000130004A93046FFF7B6F93015ADF810009C
:100F800004208DF8130004A93046FFF7ACF92520A2
:100F90008DF814008DF815408DF8164001208DF85D
:100FA000170005A8FFF71AFA0020ADF80400ADF805
:100FB0000600ADF80800ADF80C000C200A4CADF8A6
:100FC0000A00009569462046FFF738FC012240F2EE
:100FD00025512046FFF71AFC01212046FFF7E6FBCA
:100FE00006B070BD0008014000380140D0E9013270
:100FF00001699A60D0E901235A604A68824201D1AE
:1010000082684A60002202610868401E08607047DA
:1010100030B50C68621C02D000F1080202E00269DF
:1010200004E01A4653681D68A542FAD953684B601C
:1010300099608A60516008610168491C016030BD97
:1010400042684A6093688B60936859609160086158
:101050000168491C01607047502080F31188BFF37C
:101060004F8FBFF36F8F09494868401C48600128C3
:101070000AD10748006810F0FF0F05D04FF4BD7289
:1010800004A10FA0FFF73CBC704700006C000020DB
:1010900004ED00E02E2E5C4672656552544F535CA1
:1010A000706F727461626C655C525644535C41525D
:1010B0004D5F434D335C706F72742E63000000000F
:1010C0004572726F723A25732C25640D0A00000078
:1010D00010B5084C606828B940F2811206A111A031
:1010E000FFF70EFC6068401E606001D180F311883C
:1010F00010BD00006C0000202E2E5C46726565520B
:10110000544F535C706F727461626C655C525644EC
:10111000535C41524D5F434D335C706F72742E636C
:10112000000000004572726F723A25732C25640D21
:101130000A00000010B5040012D00E49096B29B155
:1011400040F2CF420CA111A0FFF7DAFB00F028F823
:1011500000212046FFF7B2FE00F000F9002807D179
:101160000E494FF080500860BFF34F8FBFF36F8F71
:1011700010BD0000300000202E2E5C4672656552C6
:10118000544F535C7461736B732E63004572726FBE
:10119000723A25732C25640D0A00000004ED00E06E
:1011A0000248016B491C01637047000030000020B9
:1011B00070B5134D286B10B10120E86170BD00209F
:1011C000E86128690F4EB0FA80F0C0F11F0000EB13
:1011D000800456F8240028B940F6F6220AA10FA090
:1011E000FFF78EFB06EB840000F1080241684968B6
:1011F0004160914201D149684160C868286070BD72
:10120000300000207C0000202E2E5C467265655266
:10121000544F535C7461736B732E63004572726F2D
:10122000723A25732C25640D0A00000010B5502079
:1012300080F31188BFF34F8FBFF36F8F00F01AF860
:1012400018B104494FF080500860002080F31188E5
:1012500010BD000004ED00E00548416919B1006BC4
:1012600018B100207047012070470220704700002D
:10127000300000202DE9F0412D4F0026386B40B1A1
:10128000B869401CB861F86900B101263046BDE874
:10129000F081FD686D1CFD6011D1786B006828B18C
:1012A00040F6D91223A128A0FFF72AFB786BB96B6F
:1012B0007963B863386A401C3862FFF737FEB86A52
:1012C000DFF89480854209D3786B006880B1786B31
:1012D000C068C468606885420DD2B8623868C06A68
:1012E00000EB800158F821000128CCD90126CAE77B
:1012F0004FF0FF30F1E7201DFFF778FEA06A18B12C
:1013000004F11800FFF772FEE06A01213A6981409A
:101310001143396100EB800108EB8100211DFFF7CB
:101320008FFEE06A3968C96A8842CDD30126CBE7CF
:10133000300000202E2E5C4672656552544F535C7F
:101340007461736B732E63004572726F723A25730A
:101350002C25640D0A0000007C0000202DE9F047D8
:101360002B4D00242746286B28B94FF4FD6229A194
:101370002DA0FFF7C5FAFFF76FFE286B401E28630C
:10138000286BE8BBA8682C490126C8B3A1F52A79C7
:101390008846D8F80010E9B1D8F80C00C46804F108
:1013A0001800FFF723FE201DFFF720FEE06A2A69E0
:1013B00006FA00F11143296100EB800109EB81007D
:1013C000211DFFF73DFEE06A2968C96A8842E0D323
:1013D000EE61DEE70CB1FFF7A9FDAC693CB1FFF7A8
:1013E00049FF00B1EE61641EF9D10020A861E869EF
:1013F00030B11249012738070860BFF34F8F00E072
:1014000001E0BFF36F8FFFF763FE3846BDE8F0875A
:10141000300000202E2E5C4672656552544F535C9E
:101420007461736B732E63004572726F723A257329
:101430002C25640D0A0000002403002004ED00E0C8
:1014400060140008000000207C0000002009000853
:10145000DC1400087C000020E406000030090008CD
:1014600000A24A0400000000000000000102030482
:10147000060708090000000000000204060800003A
:10148000000001020304010203040607080900002A
:10149000000000000000000000000000000000004C
:1014A000000000000000000000000000000000003C
:1014B000000000000000000000000000000000002C
:1014C000000000000000000000000000000000001C
:0C14D000AAAAAAAA000000000000000068
:04000005080001DD11
:00000001FF
