:020000040800F2
:10000000385B002079020008F70900089B08000807
:10001000F5090008E9070008E510000800000000E5
:10002000000000000000000000000000E1010008E6
:10003000EB0700080000000025020008A50E0008DC
:10004000930200089302000893020008930200083C
:10005000930200089302000893020008930200082C
:10006000930200089302000893020008930200081C
:10007000930200089302000893020008930200080C
:1000800093020008930200089302000893020008FC
:1000900093020008930200089302000893020008EC
:1000A00093020008930200089302000893020008DC
:1000B00093020008930200089302000893020008CC
:1000C00093020008930200089302000893020008BC
:1000D00093020008490F00089302000893020008E9
:1000E000930200089302000893020008930200089C
:1000F000930200089302000893020008930200088C
:10010000930200089302000893020008930200087B
:10011000930200089302000893020008930200086B
:10012000930200089302000893020008930200085B
:1001300000F002F800F045F80AA090E8000C8244B4
:100140008344AAF10107DA4501D100F03AF8AFF291
:10015000090EBAE80F0013F0010F18BFFB1A43F0A5
:1001600001031847F82D0000182E0000103A24BF94
:1001700078C878C1FAD8520724BF30C830C144BF0C
:1001800004680C607047000000230024002500264E
:10019000103A28BF78C1FBD8520728BF30C148BFEA
:1001A0000B607047642900F0BF80782900F0F88068
:1001B000732900F05182002070471FB51FBD10B594
:1001C00010BD00F0DEFA1146FFF7F7FF01F052F81C
:1001D00000F0FCFA03B4FFF7F2FF03BC00F083FF6A
:1001E000224B19680868B0E8F00F80F30988BFF364
:1001F0006F8F4FF0000080F311884EF00D0E7047A6
:100200000000000006480068006880F3088862B6B5
:1002100061B6BFF34F8FBFF36F8F00DF00BF00BF2A
:1002200008ED00E0EFF30980BFF36F8F0F4B1A6802
:1002300020E9F00F106008B54FF0500080F31188EE
:10024000BFF34F8FBFF36F8F02F092F84FF00000B3
:1002500080F31188BDE8084019680868B0E8F00F1D
:1002600080F30988BFF36F8F704700BF4C000020F8
:10027000EFF30580704700000948804709480047B0
:10028000FEE7FEE7FEE7FEE7FEE7FEE7FEE7FEE746
:10029000FEE7FEE704480549054A064B70470000A3
:1002A000B90E00083101000838550020385B0020E5
:1002B0003857002038570020704700000FB4044919
:1002C00010B503AA029800F0CBF910BC5DF814FB3E
:1002D0003400002070B50C460546012A05D0287868
:1002E000800600D5EA69002302E0012305E05B1CDB
:1002F000934202D2E05C0028F9D1A869E618C01A3E
:10030000A861286A184428622846AFF3008004E0F8
:10031000D5E9012114F8010B9047B442F8D32846DF
:10032000AFF3008070BD00002DE9F04106460024C7
:1003300010687529314616A510D0AFF3008000284B
:1003400002DA404213A507E031688A0701D512A5F9
:1003500002E0490704D511A5012401E0AFF30080B4
:1003600000210A2206F1240709E0B0FBF2FCB0FBF1
:10037000F2F302FB1C00303078541846491C002868
:10038000F3D123462A463046BDE8F04100F0E1B8FB
:10039000000000002D0000002B00000020000000E5
:1003A00070B504460D4621461068AFF300802188E1
:1003B000090502D50F4A7A4402E00E4A7A440E3209
:1003C000002104F1240305E000F00F060009965D0A
:1003D0005E54491C0028F7D120780023000704D57B
:1003E000702D02D009B1022311322046BDE87040C1
:1003F00000F0AFB87A2B00002DE9F0410F4605461A
:10040000002028622846E968884770B3252805D06F
:10041000D5E901219047286A401CF2E7E96828469F
:10042000002688476C2804460AD0682C08D04C2C3B
:1004300035D06A2C31D0742C31D07A2C2FD016E0E4
:10044000E968064628468847B042044608D16C2E23
:1004500023D04FF480662846E9688847044606E0C2
:100460006C2E03D04FF4807601E01EE04026E4B10C
:10047000A4F14100192802D8203446F400663A4617
:10048000214628462E60FFF78DFE60B1012808D076
:10049000FF1D27F007070837B4E78026DBE70026B3
:1004A000D9E73F1DAEE72046B2E7286ABDE8F081F4
:1004B000032A40F2308010F0030C00F0158011F890
:1004C000013BBCF1020F624498BF11F801CB00F868
:1004D000013B38BF11F8013BA2F1040298BF00F8BC
:1004E00001CB38BF00F8013B11F0030300F0CA80D4
:1004F000083AC0F0088051F8043B083A51F804CBA0
:10050000A0E80810F5E7121D5CBF51F8043B40F865
:10051000043BAFF30080D20724BF11F8013B11F870
:1005200001CB48BF11F8012B24BF00F8013B00F8B4
:1005300001CB48BF00F8012B704702F0FF0343EAEC
:10054000032242EA024200F0D1B870477047704778
:1005500070472DE9F0470D4699469246044600F152
:1005600024080168880604D5E06921F010012160A3
:1005700000E00120A84201DD471B00E00027A1693F
:100580007A1902EB0900081AA0612078C00602D48B
:100590002046AFF30080002608E0D4E901211AF8D4
:1005A00006009047206A401C761C20624E45F4DB12
:1005B0002078C0060AD52046AFF3008006E0D4E9D3
:1005C000012130209047206A401C2062381EA7F18C
:1005D0000107F4DC07E0D4E9012118F80500904791
:1005E000206A401C2062281EA5F10105F3DC20468C
:1005F000AFF300802078000602D50220BDE8F08726
:100600000120FBE701694A1C02610878704700B5C8
:100610008FB0CDE901310021059105497944CDE93B
:10062000031011466846FFF7E7FE0FB000BD00005B
:10063000E5FFFFFF10B5436913B1AFF3008001E0A0
:10064000FFF748FE012010BD127800F124010A7066
:1006500000224A700122EDE711684FF0FF32E9E70E
:10066000074B70B50D467B44FFF7D1FF0446284683
:1006700000F05CF810B14FF0FF3070BD204670BD47
:10068000330B000010B5203AC0F00B80B1E81850D1
:10069000203AA0E81850B1E81850A0E81850BFF46C
:1006A000F5AF5FEA027C24BFB1E81850A0E818500B
:1006B00044BF18C918C0BDE810405FEA827C24BF5F
:1006C00051F8043B40F8043B08BF7047D20728BFED
:1006D00031F8023B48BF11F8012B28BF20F8023B3C
:1006E00048BF00F8012B70474FF000020429C0F00A
:1006F000128010F0030C00F01F80CCF1040CBCF150
:10070000020F18BF00F8012BA8BF20F8022BA1EBA5
:100710000C0100F011B85FEAC17C24BF00F8012B86
:1007200000F8012B48BF00F8012B7047007B00F058
:10073000800070474FF0000200B51346944696467D
:10074000203922BFA0E80C50A0E80C50B1F12001E4
:10075000BFF4F7AF090728BFA0E80C5048BF0CC092
:100760005DF804EB890028BF40F8042B08BF7047F0
:1007700048BF20F8022B11F0804F18BF00F8012B62
:100780007047754600F02CF8AE46050069465346A2
:1007900020F00700854618B020B5FFF77BFDBDE8C7
:1007A00020404FF000064FF000074FF000084FF0D8
:1007B000000B21F00701AC46ACE8C009ACE8C00969
:1007C000ACE8C009ACE8C0098D46704710B50446D6
:1007D000AFF300802046BDE81040FFF7FBBC0000EF
:1007E00000487047D4540020FEE77047F0B5CC783D
:1007F000002204F00F03E40601D58C7823430C7823
:100800004FF00F0C14F0FF0F4FF0010E1BD00568D6
:100810000E880EFA02F42640A64210D196000CFA79
:1008200006F725EA070703FA06F5CE783D43282E9A
:1008300002D0482E02D002E0446100E00461521C64
:10084000082AE5D305600A88FF2A1CD944680022DB
:1008500002F108060EFA06F50E882E40AE420ED1C1
:1008600096000CFA06F7BC4303FA06F7CE783C4331
:10087000282E00D14561CE78482E00D10561521C4A
:10088000082AE5D34460F0BD0246002092680A427F
:1008900000D00120704701617047FEE708B50121D3
:1008A000442000F0DBF81C20ADF8000048208DF853
:1008B000030069460648FFF799FF0120ADF80000E4
:1008C00028208DF8030069460248FFF78FFF08BD16
:1008D00000180140000801402DE9F0412E4C2F4F37
:1008E0002F4D012608B1267001E02078A0B110211B
:1008F0002846FFF7C9FFB0B108212846FFF7C4FF1B
:1009000088B104212846FFF7BFFF60B101213846B6
:10091000FFF7BAFF012806D010212846FFF7B4FFE1
:10092000012824D035E00A2000F002FC00202070CD
:1009300010212846FFF7A8FF80B108212846FFF7BD
:10094000A3FF70B104212846FFF79EFF58B1012193
:100950003846FFF799FF012807D01AE00120BDE8CB
:10096000F0810220FBE70320F9E70420F7E70821E4
:100970002846FFF789FF01280BD104212846FFF7FD
:1009800083FF012805D101213846FFF77DFF00B91B
:1009900026700020E3E7000014000020000801405A
:1009A0000018014038B50121482000F057F82024F4
:1009B000ADF8004010208DF8030003200B4D8DF89A
:1009C000020069462846FFF711FF20212846FFF75D
:1009D00062FFADF80040064C69462046FFF706FF6F
:1009E00020212046FFF757FF38BD0000000C0140D2
:1009F00000180140FEE7704730B50F23C278017838
:100A00000125F2B1144A126801F1E02102F4E0621A
:100A1000C2F5E062120AC2F10404D3404278A24057
:100A200084781C401443220181F80024007800F0EF
:100A30001F018D404009800000F1E020C0F8005106
:100A400030BD01F01F0085404809800000F1E02022
:100A5000C0F8805130BD00000CED00E0044A0029D0
:100A6000916901D0014300E081439161704700002A
:100A70000010024030B5204A5168204B11F00C01A3
:100A800003D0042901D0082901D0036012E0516885
:100A9000536801F470114FF0020413F4803F04EB2B
:100AA000914102D053689B0301D5154B00E0134BD5
:100AB0005943016051680F2303EA1111114B5C5C2B
:100AC0000168E14041605468072505EA14241C5D73
:100AD00021FA04F48460546805EAD4241B5DD940EB
:100AE000C1605268032303EA9232064B1B1F9A5CD3
:100AF000B1FBF2F1016130BD0010024000127A003A
:100B000000093D003C00002008B50DA0FFF7D6FB12
:100B1000124C4FF0FF354FF47A7600232A4669468F
:100B2000206901F0F1FC0146012806D00CA0FFF776
:100B3000C5FB304600F0FCFAEFE710A00099F6E79D
:100B4000526563656976655F5461736BC8CECEF19B
:100B5000D5FDD4DAD4CBD0D0210D0A001800002066
:100B6000CAFDBEDDBDD3CAD5B3F6B4ED2CB4EDCE0F
:100B7000F3B4FAC2EB3078256C780A00B1BEB4CE7B
:100B8000BDD3CAD5B5BDB5C4CAFDBEDDCAC72564CF
:100B90000D0A00001CB5012000900220019017A052
:100BA000FFF78CFB1C4C4FF4FA750020FFF794FE06
:100BB000012802D002280ED01CE018A0FFF77EFB0F
:100BC00000231A466946206901F0B4FD012811D1BD
:100BD00018A000990CE01FA0FFF770FB00231A4635
:100BE00001A9206901F0A6FD012803D11FA00199E8
:100BF000FFF764FB284600F09BFAD6E753656E6466
:100C00005F5461736BC8CECEF1D5FDD4DAD4CBD0AE
:100C1000D0210D0A0000000018000020B7A2CBCDA3
:100C2000CFFBCFA273656E645F6461746131212173
:100C30000D0A0000CFFBCFA273656E645F64617420
:100C40006131B7A2CBCDB3C9B9A620256421200D4F
:100C50000A000000B7A2CBCDCFFBCFA273656E64B4
:100C60005F646174613221200D0A0000CFFBCFA2C6
:100C700073656E645F6461746132B7A2CBCDB3C932
:100C8000B9A620256421200D0A0000000CB5002221
:100C9000264800920192016841F4803101604FF4CE
:100CA000A063016801F4003101910099491C009191
:100CB000019911B900999942F3D10168890333D59B
:100CC000012101911A490A6842F010020A600A687B
:100CD00022F003020A600A6842F002020A604168D8
:100CE000416041684160416841F480614160416810
:100CF00021F47C114160416841F4E81141600168D0
:100D000041F08071016001688901FCD5416821F0E2
:100D100003014160416841F0020141604168C1F353
:100D200081010229FAD10CBD01920CBD00100240D4
:100D3000002002401CB501F023F81F490320CDE933
:100D40000001002340221DA11E4801F06BFE012876
:100D50002BD01DA0FFF7B2FA17490120091DCDE9DC
:100D60000001002340221EA1214801F05BFE012862
:100D70001DD020A0FFF7A2FA0F4902200831CDE9CB
:100D800000010023402222A1244801F04BFE01284B
:100D90000FD023A0FFF792FA0748001F006801F068
:100DA0006BF9BDE81C4001F027B824A0D2E729A0C8
:100DB000E0E72FA0EEE700001C0000205461736BF9
:100DC00031000000090F00085461736B31C8CECEAA
:100DD000F1B4B4BDA8CAA7B0DC210D0A0000000020
:100DE000526563656976655F5461736B000000004E
:100DF000090B0008526563656976655F5461736B22
:100E0000C8CECEF1B4B4BDA8CAA7B0DC210D0A008B
:100E100053656E645F5461736B000000950B0008AE
:100E200053656E645F5461736BC8CECEF1B4B4BDCC
:100E3000A8CAA7B0DC210D0A000000005461736B42
:100E400031C8CECEF1B4B4BDA8B3C9B9A6210D0A3C
:100E500000000000526563656976655F5461736BDD
:100E6000C8CECEF1B4B4BDA8B3C9B9A6210D0A004D
:100E700053656E645F5461736BC8CECEF1B4B4BD7C
:100E8000A8B3C9B9A6210D0A000000004FF0E02167
:100E90000428086903D020F004000861704740F07E
:100EA0000400FAE710B501F0E9FD012803D0BDE820
:100EB000104001F0D7BA10BD0F4810B5016841F0DD
:100EC0000101016041680D4A1140416001680C4A0E
:100ED00011400160016821F480210160416821F422
:100EE000FE0141604FF41F018160FFF7CFFE05490D
:100EF0004FF00060086010BD001002400000FFF8D5
:100F0000FFFFF6FE08ED00E008A0FFF7D7F90D4C53
:100F10004FF4FA75D4F8940130B10021C4F894115B
:100F2000284600F005F9F5E70121F7E75461736BF6
:100F300031C8CECEF1D5FDD4DAD4CBD0D0210D0A34
:100F4000000000000080214270B5154C40F2255190
:100F5000204600F035F800280ED0204600F0BEF8FC
:100F6000104AC1B21088030406D444044FF00003B1
:100F700006D50A2901D0138070BD40F400400DE071
:100F80000D2909D0C0F30D04074D401C80B229552E
:100F90001080C728EFD870BD40F48040108070BD2D
:100FA0000038014030000020C00000200029818965
:100FB00002D041F4005101E021F4005181817047D9
:100FC00070B501F01F0501260024C1F3421306FA93
:100FD00005F2012B0FD0022B0FD0838A4FEA11218B
:100FE0000088134206FA01F600EA060001D000B1BB
:100FF0000124204670BD8389F0E7038AEEE710B52F
:10100000C1F3421301F01F040121A140012B07D0BD
:10101000022B07D01430002A026805D00A4304E0EE
:101020000C30F8E71030F6E78A43026010BD00008C
:1010300030B50446008A85B00D464CF6FF71084075
:10104000E98801432182A0894EF6F3110840A9885E
:101050002A8911436A8902431143A181A08A4FF66C
:10106000FF410840A9890143A1826846FFF702FDBC
:101070001948844201D1039800E00298A18909042B
:1010800000EBC00101EB0010296801D5490000E028
:101090008900B0FBF1F06422B0FBF2F109010B0909
:1010A0006FF018056B4300EB8300A3891D044FF01C
:1010B000320306D503EBC000B0FBF2F000F00700EE
:1010C00005E003EB0010B0FBF2F000F00F00084366
:1010D000208105B030BD0000003801408088C0F399
:1010E00008007047FEE7704710B50420FFF7CEFEFA
:1010F0000C480D490D4A0068B0FBF1F3B0FBF1F16B
:101100004FF47A7041431370012050804FF0E0207B
:10111000026942F0020202614161016941F001018C
:10112000016110BD0000002040420F002C00002093
:1011300070B5044601F0A2FC01280CD0094D688866
:10114000844203D3B4FBF0F000F060FF6888B4FB86
:10115000F0F100FB11444FF47A706043BDE8704039
:1011600000F002B82C00002070B54FF0E0250021FF
:101170006C69094AAB6912785043AA699A42FCD05B
:1011800002D2A3EB020302E0A4EB020633441944AB
:1011900013468142F1D370BD2C00002004490A8817
:1011A0005206FCD5024AC1B2121D118070470000E0
:1011B000003801401CB5002204210A2001F068F922
:1011C0000E49086108B10EA000E011A0FFF776F803
:1011D0000A490820CDE900010023402210A114484B
:1011E00001F020FC012806D012A0FFF767F8BDE847
:1011F0001C4001F06BB817A0F7E7000018000020B2
:10120000B6D3C1D0B4B4BDA8B3C9B9A6210D0A00E4
:10121000B6D3C1D0B4B4BDA8CAA7B0DC210D0A00B2
:1012200053746172745461736B43726561746500C9
:10123000350D000853746172745461736B437265A9
:10124000617465C8CECEF1B4B4BDA8CAA7B0DC2124
:101250000D0A000053746172745461736B437265BC
:10126000617465C8CECEF1B4B4BDA8B3C9B9A62126
:101270000D0A00004FF4E13000F0EEFCFFF792FBA6
:10128000FFF732FFFFF70AFB02A0FFF717F8FFF79F
:1012900091FFFEE748656C6C6F20576F726C64219C
:1012A0000D0A00002DE9F041184E0F460446F5687E
:1012B0003068001D00F020FD38B9306890F82C101F
:1012C00001208840316981433161601C07D137B109
:1012D0003168BDE8F0410E48091D00F045BD306899
:1012E0002C44AC424460316805D2B06BBDE8F0419B
:1012F000091D00F021BD706B091D00F01DFDB06AD5
:10130000844200D2B462BDE8F08100004C000020AD
:10131000980400202DE9F041054600F031FD2D4EE6
:10132000B068401CB06030682B4F10B1706930B3AA
:101330002BE03560B068012827D1002404EB84003D
:1013400007EB800000F0EAFC641C202CF6D3234855
:1013500000F0E4FC2148143000F0E0FC1F48283085
:1013600000F0DCFC1D483C3000F0D8FC1B4850303D
:1013700000F0D4FC194870631430B06305E03068A5
:10138000E96AC06A884200D83560706A0121401C51
:1013900070626864E86A326981401143316100EB30
:1013A000800007EB8000291D00F0DEFC00F024FD2A
:1013B000706900280CD03068E96AC06A884207D298
:1013C00007494FF080500860BFF34F8FBFF36F8F16
:1013D000BDE8F0814C000020C80100204804002036
:1013E00004ED00E010B500F0CBFC0E4C2068A0B975
:1013F0000D4800F093FC0C48143000F08FFC0A48B4
:10140000E0601430206100221021052001F040F836
:10141000206010B105A100F0C5FDBDE8104000F04E
:10142000EBBC000088000020AC040020546D725119
:101430000000000070B5124E124D1CE000F090FF4D
:10144000306820B1002401F047FCA4B901E0012478
:10145000F9E700F095FCF068C468201D00F04CFC32
:10146000A868401EA8606868401E686000F0C4FC60
:10147000204600F052F868680028DFD170BD0000F7
:10148000840400204C00002030B4026C0B46002A7B
:101490000BD0C1681144C1604468A14201D3016806
:1014A000C16030BC1846FFF703B830BC70472DE967
:1014B000F041856B174604460026026C82B1C7B125
:1014C000E068FEF7F5FFE168206C091AE160226828
:1014D000914202D26168081AE060022F16D017E02C
:1014E0002068A8B9606801F051FB064600206060E2
:1014F0000EE0A068FEF7DCFF216CA0680844A06045
:101500006168884204D32068A06001E005B16D1EC7
:101510006D1CA5633046BDE8F08110B50446006B34
:1015200000F09CFC2046BDE8104000F097BC000095
:1015300010484FF4A041420706D0C01D0D4920F0CD
:101540000700411AC1F5A0410B4A00230144C2E93A
:1015500000030839103A21F0070111604B600B605D
:101560000B1AC0E9001393604FF000405360D06045
:1015700070470000D4040020AC000020074E4FF05C
:101580008054074DFFF756FF30680128FAD92C60C8
:10159000BFF34F8FBFF36F8FF4E70000C801002047
:1015A00004ED00E02DE9F047DDE909840E46174619
:1015B000824691009946089DA522206BFEF7BDFF4B
:1015C0006FF00301206B01EB8701084420F007074F
:1015D000780705D040F22B3219A11EA0FEF76EFE4F
:1015E00000202218315C82F83410315C11B1401CAB
:1015F0001028F6D3002684F84360202D00D31F2541
:10160000E562C4E91356201D00F093FB04F11800B5
:1016100000F08FFB2461C5F120006462A061666563
:1016200084F858604A465146384600F003FB206073
:10163000B8F1000F01D0C8F80040BDE8F087000005
:101640002E2E5C4672656552544F535C7461736B09
:10165000732E63004572726F723A25732C25640DE8
:101660000A00000030B5114900E011460A688242C4
:10167000FBD34B685C18844203D14068184448602F
:10168000084643681C18944209D1084C103C246851
:10169000A24209D052681A4442600A681268026085
:1016A000814200D0086030BD0460F9E7AC00002042
:1016B00070B5002441600B4D0061914206D8D11AEB
:1016C0008269914206D2011D286907E09A4203D23D
:1016D000994201D3012403E0011DE86800F02CFBCE
:1016E000204670BD8800002010B5044600F048FB7D
:1016F000A06B20B1002400F07FFB204610BD012428
:10170000F9E700002DE9F34100980F460026846CAC
:101710002CB940F6CE1216A11AA0FEF7CFFDA06B91
:10172000E16B884205D340F6CF1211A115A0FEF758
:10173000C5FDA06BE16B88420CD294F945503A4646
:1017400069462046FFF7B3FE0646681C05D06D1CAF
:1017500084F845503046BDE8FC81606A0028F9D025
:1017600004F1240001F06CFA0028F3D00126F1E71F
:101770002E2E5C4672656552544F535C71756575CB
:10178000652E63004572726F723A25732C25640DC5
:101790000A000000F8B5054614480E46C068C06847
:1017A000C468201D00F0A8FAE069012817D1A069DB
:1017B0002B46411932462046FFF77AFF78B10020C8
:1017C0000346014600902A46204601F06BFB30B9E3
:1017D00007494FF4027201F11800FEF76FFD616ACC
:1017E00001B02046BDE8F040084700008800002016
:1017F000082E000870B586B02F4E53E001980028DF
:1018000006DADDE90301029A90470198002849DBD6
:10181000039C606910B1201D00F06EFA05A800F06D
:10182000A7F8054601980A283CD2DFE800F0050534
:10183000053B273805053B270298A169034601446B
:101840002A462046FFF734FF00282BD0616A204645
:101850008847E069012825D1002000900298A169FD
:10186000002342181946204601F01CFBD0B940F273
:10187000213212A117A0FEF721FD13E00298A0610A
:1018800028B94FF44E720DA112A0FEF717FDA06902
:101890002B4641191A462046FFF70AFF02E0204670
:1018A00000F0DCFA00231A4601A9306800F02CFE93
:1018B0000028A3D106B070BD880000202E2E5C4603
:1018C00072656552544F535C74696D6572732E6313
:1018D000000000004572726F723A25732C25640D6A
:1018E0000A000000F8B50D46064600F039FD6846CE
:1018F00000F03EF80446009810B101F0EDF9F8BD93
:101900001148ADB101690968D9B10025311B2A46DA
:10191000006800F059FB01F0DFF90028EFD10B4916
:101920004FF080500860BFF34F8FBFF36F8FF8BD4B
:10193000A642EBD801F0D0F921463046FFF72AFF46
:10194000F8BD0125E2E700008800002004ED00E07A
:101950000648416B096829B1416BC968C968496883
:10196000816270474FF0FF31FAE700004C00002021
:1019700070B5054601F090F8064E0446B068844202
:1019800003D200F009F8012000E000202860204682
:10199000B46070BD88000020F8B5184E26E0C0681D
:1019A000C4680568201D00F0A7F9616A20468847D1
:1019B000E06901281AD1A0692844A84206D9246107
:1019C0006060211DF06800F0B7F90FE000200346C9
:1019D000014600902A46204601F064FA30B90849D1
:1019E00040F2923201F11800FEF768FCF0680168DD
:1019F0000029D4D13169C6E90310F8BD8800002060
:101A0000082E000808484068401C04D0F42207A1B2
:101A100011A0FEF753FC502080F31188BFF34F8FC5
:101A2000BFF36F8FFEE70000B40000202E2E5C464F
:101A300072656552544F535C706F727461626C656D
:101A40005C525644535C41524D5F434D335C706F62
:101A500072742E63000000004572726F723A257333
:101A60002C25640D0A000000084CE068016839B1BB
:101A7000002139B10020FFF735FFFFF7BBFEF4E787
:101A80000121F6E7C0680068F5E700008800002043
:101A90002DE9F041044600F073F994F9455004F142
:101AA000240610E0A06C20B100212046FFF72AFE9A
:101AB00004E0606A48B1304601F0C2F808B100F0B5
:101AC00041FB6D1E6DB2002DECDC4FF0FF3684F84B
:101AD000456000F091F900F053F994F9445004F195
:101AE000100709E0206948B1384601F0A9F808B1AB
:101AF00000F028FB6D1E6DB2002DF3DC84F844600D
:101B0000BDE8F04100F078B92DE9F0410546002626
:101B100000F026FC324F386808B9FFF709FDF86875
:101B200005424FD1002D4DD0083568070BD005F088
:101B30000700C0F108000544680704D0BF2229A1AE
:101B400032A0FEF7BBFB002D3CD07868854239D827
:101B5000234910310846046801E0214604466068C4
:101B6000A84202D220680028F7D13868B8468442DB
:101B700028D00E682068086060680836401B10286E
:101B80000ED96719780704D0EC2216A11FA0FEF722
:101B900095FB6068401B786038466560FFF762FD22
:101BA0006168D8F804004246401AC8F80400D8F822
:101BB0000830984200D29060D8F80C000143002011
:101BC000C4E9000101F088F8700705D04FF496725F
:101BD00004A10EA0FEF772FB3046BDE8F0810000C4
:101BE0009C0000202E2E5C4672656552544F535C5B
:101BF000706F727461626C655C4D656D4D616E678E
:101C00005C686561705F342E630000004572726F1E
:101C1000723A25732C25640D0A00000004490868F7
:101C200018B10868026D521C026508687047000010
:101C30004C00002010B5031F4FF080741C601B1F68
:101C400021F001011960191F024B0B601439403853
:101C50000A6010BD051A000870B5054686B001215E
:101C600044F20400FEF7FAFE4FF40070ADF81000E5
:101C700003248DF8124018201D4E8DF8130004A97E
:101C80003046FEF7B3FD3015ADF8100004208DF896
:101C9000130004A93046FEF7A9FD25208DF8140095
:101CA0008DF815408DF8164001208DF8170005A815
:101CB000FEF7A2FE0020ADF80400ADF80600ADF876
:101CC0000800ADF80C000C200A4CADF80A00009595
:101CD00069462046FFF7ACF9012240F22551204623
:101CE000FFF78DF901212046FFF760F906B070BDBE
:101CF0000008014000380140D0E9013201699A60D2
:101D0000D0E901235A604A68824201D182684A6060
:101D1000002202610868401E0860704700F1080157
:101D20004FF0FF32C0E90112C16001610021016082
:101D3000704700210161704730B50C68621C02D009
:101D400000F1080202E0026904E01A4653681D68C7
:101D5000A542FAD953684B6099608A605160086166
:101D60000168491C016030BD42684A6093688B601D
:101D700093685960916008610168491C016070476F
:101D8000502080F31188BFF34F8FBFF36F8F094945
:101D90004868401C486001280AD10748006810F0D4
:101DA000FF0F05D04FF4BD7204A10FA0FEF786BA55
:101DB00070470000B400002004ED00E02E2E5C46C9
:101DC00072656552544F535C706F727461626C65DA
:101DD0005C525644535C41524D5F434D335C706FCF
:101DE00072742E63000000004572726F723A2573A0
:101DF0002C25640D0A00000010B5084C606828B955
:101E000040F2811206A111A0FEF758FA6068401E48
:101E1000606001D180F3118810BD0000B400002083
:101E20002E2E5C4672656552544F535C706F72740F
:101E300061626C655C525644535C41524D5F434D48
:101E4000335C706F72742E63000000004572726F15
:101E5000723A25732C25640D0A00000070B5002825
:101E60002AD0164DA0F108046068E968084205D13F
:101E70004FF4A07212A11CA0FEF720FA206828B12E
:101E800040F241120EA118A0FEF718FA6068E96846
:101E9000084211D02268002A0ED18843606000F009
:101EA0005FFA60686968084468602046FFF7DAFBFB
:101EB000BDE8704000F010BF70BD00009C00002025
:101EC0002E2E5C4672656552544F535C706F72746F
:101ED00061626C655C4D656D4D616E675C686561E6
:101EE000705F342E630000004572726F723A257382
:101EF0002C25640D0A00000006484FF47A71006832
:101F0000B0FBF1F14FF0E020491E41610721016172
:101F1000704700000000002010B5FEF7A9F9104C32
:101F200010280CD300F1E02090F8F00321788842CB
:101F300005D24FF42A720BA115A0FEF7BFF918487D
:101F40000068A16800F4E060884207D9BDE810404D
:101F50004FF42E7203A10EA0FEF7B0B910BD000021
:101F6000B40000202E2E5C4672656552544F535CBF
:101F7000706F727461626C655C525644535C41527E
:101F80004D5F434D335C706F72742E630000000030
:101F90004572726F723A25732C25640D0A00000099
:101FA0000CED00E010B5074B002253F832401CB195
:101FB000521C082AF9D310BD43F8321003EBC201BA
:101FC000486010BD8801002070B515460E460446D5
:101FD000FFF7D6FE94F944100020491C01D184F883
:101FE000440094F94510491C01D184F84500FFF7DD
:101FF00003FFA06B28B92A46314604F1240000F003
:10200000D1F82046BDE87040FFF742BD10B504008E
:1020100012D00E49096B29B140F2CF420CA111A098
:10202000FEF74CF900F09CF900212046FFF73AF941
:1020300000F052FE002807D10E494FF08050086092
:10204000BFF34F8FBFF36F8F10BD00004C00002017
:102050002E2E5C4672656552544F535C7461736BEF
:10206000732E63004572726F723A25732C25640DCE
:102070000A00000004ED00E070B50446FFF780FEA2
:10208000234D04B92C68201DFFF736FE58B9E06ACD
:10209000204A00EB800152F8211021B90121814032
:1020A000286988432861A06A18B104F11800FFF775
:1020B00023FE686A401C68622868844207D1211D9B
:1020C0001548FFF751FE6868401C686007E0A86883
:1020D000401EA8602046FFF720FAFFF739FCFFF703
:1020E0008BFE6869002812D0286884420FD1286BC3
:1020F00028B140F2654209A10DA0FEF7DFF81049B2
:102100004FF080500860BFF34F8FBFF36F8F70BDEB
:102110004C000020C8010020840400202E2E5C46C4
:1021200072656552544F535C7461736B732E630018
:102130004572726F723A25732C25640D0A000000F7
:1021400004ED00E001490120C86170474C00002007
:1021500070B50D46040005D140F6063207A10CA06B
:10216000FEF7ACF80E48016820461831FFF7E4FD91
:102170002846BDE870400121FFF794B82E2E5C463A
:1021800072656552544F535C7461736B732E6300B8
:102190004572726F723A25732C25640D0A00000097
:1021A0004C00002070B514460E46050005D140F6DF
:1021B000313209A10DA0FEF781F8104801682846C8
:1021C0001831FFF7D1FD0CB14FF0FF3621463046F4
:1021D000BDE87040FFF766B82E2E5C46726565520A
:1021E000544F535C7461736B732E63004572726F4E
:1021F000723A25732C25640D0A0000004C00002063
:1022000070B5040039D01D4DE06A2968C96A88425A
:1022100033D2A069002804DB2868C06AC0F120001E
:10222000A061E06A164E00EB8000616906EB800059
:1022300081421FD1201DFFF75FFD012150B9E06AE7
:1022400000EB800256F8222022B92A6901FA00F038
:1022500082432A612868C06AE0622A69814011438A
:10226000296100EB800006EB8000211DBDE8704075
:10227000FFF77ABD2868C06AE06270BD4C0000209C
:10228000C801002010B5040005D140F6C13205A1F7
:1022900009A0FEF713F80C48016A2160C06860606D
:1022A00010BD00002E2E5C4672656552544F535C83
:1022B0007461736B732E63004572726F723A25738B
:1022C0002C25640D0A0000004C0000201CB51748A6
:1022D0000024CDE900402346822215A1164800F0D3
:1022E000A1FB012803D100F0A3FD01280AD0401C66
:1022F0001BD102B040F28472BDE810400FA114A0BF
:10230000FDF7DCBF502080F31188BFF34F8FBFF380
:102310006F8F06484FF0FF312C38816201214161F7
:10232000C460BDE81C4000F061B81CBD780000200E
:1023300049444C45000000007D1500082E2E5C46E7
:1023400072656552544F535C7461736B732E6300F6
:102350004572726F723A25732C25640D0A000000D5
:102360000248016B491C0163704700004C000020CB
:1023700070B5134D286B10B10120E86170BD0020CD
:10238000E86128690F4EB0FA80F0C0F11F0000EB41
:10239000800456F8240028B940F6F6220AA10FA0BE
:1023A000FDF78CFF06EB840000F1080241684968E4
:1023B0004160914201D149684160C868286070BDA0
:1023C0004C000020C80100202E2E5C46726565522C
:1023D000544F535C7461736B732E63004572726F5C
:1023E000723A25732C25640D0A0000001CB51A49A9
:1023F00008780190FF20087008788DF800009DF89B
:102400000000164A00F0500010700720906007E0AE
:102410009068401E90609DF8000040008DF800001C
:102420009DF800000006F3D4107A000200F4E0608A
:102430009060019808700A48016841F470010160D9
:10244000016841F070410160FFF756FD00205060C7
:10245000FDF7D8FE00201CBD00E400E0B400002021
:1024600020ED00E010B5502080F31188BFF34F8FAE
:10247000BFF36F8F00F016FB18B104494FF0805086
:102480000860002080F3118810BD000004ED00E01A
:102490002DE9F04117460E46050005D14FF4C472F0
:1024A00010A115A0FDF70AFFBEB105FB06F05430E0
:1024B000FFF72AFB04000ED004F154007EB1206027
:1024C000C4E90F562046012100F0E0F884F850706E
:1024D00000212046A164BDE8F0810020E7E72460E8
:1024E000EEE700002E2E5C4672656552544F535C39
:1024F00071756575652E63004572726F723A25734A
:102500002C25640D0A0000002DE9FF4F83B09B4687
:102510008A4604004FF0000605D140F2DC4251A18A
:1025200055A0FDF7CBFEBAF1000F07D1206C28B102
:1025300040F2DD424BA150A0FDF7C0FE00F09EFA34
:1025400038B9059828B14FF49C6246A14AA0FDF71E
:10255000B5FE4FF000094FF08057DFF82C81FFF7F0
:102560000FFCA56B45B351462046E668FEF78CFF8D
:10257000BBF1000F13D0E660606A50B104F1240093
:1025800000F05EFB28B1C8F80070BFF34F8FBFF3B7
:102590006F8FFFF731FC012007B0BDE8F08F6D1E93
:1025A000A563206810B9FFF739FB60602069002837
:1025B000EFD004F11000E3E7059808B11EB106E082
:1025C000FFF71AFC27E06846FFF75CFE0126FFF7DD
:1025D00013FCFFF7C5FEFFF7D3FB94F94400401C42
:1025E00001D184F8449094F94500401C01D184F84D
:1025F0004590FFF701FC05A9684600F0CFF90028D7
:1026000020460AD0FFF744FA00F066FB2046FFF7A9
:102610006BF80028A3D00020BEE7FFF765F8D8B11B
:10262000206830B9FFF7ACFB6068FFF7E9FDFFF702
:10263000E3FB04F124000599FFF78AFD2046FFF72C
:1026400027FA00F049FB002889D1C8F80070BFF3D1
:102650004F8FBFF36F8F82E72046FFF719FA00F024
:102660003BFB7CE72E2E5C4672656552544F535CF3
:1026700071756575652E63004572726F723A2573C8
:102680002C25640D0A00000004ED00E070B50D4635
:10269000040005D140F21B121CA121A0FDF70EFE83
:1026A000FFF76EFBD4E90F20216802FB0011616087
:1026B0000021A1632168A1600A46D4E90F01401EF0
:1026C00000FB0121E16021464FF0FF3001F8440F8B
:1026D000487004F110004DB1FFF720FB04F1240015
:1026E000FFF71CFBFFF788FB012070BD2169002963
:1026F000F8D000F0A5FA0028F4D00D494FF0805032
:102700000860BFF34F8FBFF36F8FEBE72E2E5C4651
:1027100072656552544F535C71756575652E630023
:102720004572726F723A25732C25640D0A00000001
:1027300004ED00E02DE9FF4F83B099468B4604007D
:102740004FF0000605D140F2D92252A156A0FDF764
:10275000B5FDBBF1000F07D1206C28B140F2DA22A1
:102760004CA151A0FDF7AAFDB9F1020F08D1E06B11
:10277000012805D040F2DB2246A14BA0FDF79EFDCB
:1027800000F07CF938B9059828B140F2DE2241A169
:1027900045A0FDF793FD4FF0000A4FF08057DFF89A
:1027A0001881FFF7EDFAA06BE16B884206D3B9F10F
:1027B000020F03D0059800B316B325E04A465946E8
:1027C0002046FEF774FEA16C21B149462046FEF773
:1027D00099FF05E0616A19B104F1240000F030FAB4
:1027E00028B1C8F80070BFF34F8FBFF36F8FFFF7AA
:1027F00003FB012007B0BDE8F08FFFF7FDFA21E0F1
:102800006846FFF73FFD0126FFF7F6FAFFF7A8FD40
:10281000FFF7B6FA94F94400401C01D184F844A0B3
:1028200094F94500401C01D184F845A0FFF7E4FA73
:1028300005A9684600F0B2F830B12046FFF728F944
:1028400000F04AFA0020D5E7FFF79AFAA06BE16B97
:10285000884201D1012500E00025FFF7CDFA95B1AE
:1028600004F110000599FFF773FC2046FFF710F9FB
:1028700000F032FA002894D1C8F80070BFF34F8FEF
:10288000BFF36F8F8DE72046FFF702F900F024FABF
:1028900087E700002E2E5C4672656552544F535CEC
:1028A00071756575652E63004572726F723A257396
:1028B0002C25640D0A00000004ED00E02DE9F0472E
:1028C000984615468946040005D140F29F322AA158
:1028D0002EA0FDF7F3FCB9F1000F07D1206C28B151
:1028E0004FF4687224A129A0FDF7E8FCB8F1020FAB
:1028F00008D1E06B012805D040F2A1321EA123A02F
:10290000FDF7DCFCFFF708FB5020EFF3118780F3A5
:102910001188BFF34F8FBFF36F8FA06BE16B8842BD
:1029200007D3B8F1020F04D0002087F31188BDE867
:10293000F08794F94560424649462046FEF7B7FDC8
:10294000701C04D0761C84F845600120EDE7A06C73
:10295000012620B141462046FEF7D4FE06E0606A1B
:102960000028F2D004F1240000F06AF90028ECD02D
:10297000002DEAD02E60E8E72E2E5C467265655287
:10298000544F535C71756575652E63004572726FA7
:10299000723A25732C25640D0A00000070B50D46AF
:1029A000040005D140F6CB3214A119A0FDF786FC36
:1029B0002DB940F6CC3211A115A0FDF77FFCFFF731
:1029C000DFF9174AD06829684B1C0FD02368126AB8
:1029D000934202D0626882420AD96268801A8842B1
:1029E00006D2081A28602046FFF74CFC002400E0BD
:1029F0000124FFF701FA204670BD00002E2E5C4630
:102A000072656552544F535C7461736B732E63002F
:102A10004572726F723A25732C25640D0A0000000E
:102A20004C0000202DE9FF5F8346DDE90E879946C3
:102A300016468A469000FFF767F805001AD05C201A
:102A4000FFF762F8040012D025630021CDE90241AE
:102A5000CDE900874B46324651465846FEF7A2FD67
:102A60002046FEF757FC012004B0BDE8F09F284641
:102A7000FFF7F4F94FF0FF30F6E700000548416931
:102A800019B1006B18B10020704701207047022077
:102A9000704700004C0000200148C06870470000EB
:102AA0004C0000202DE9F0412D4F0026386B40B13D
:102AB000B869401CB861F86900B101263046BDE82C
:102AC000F081FD686D1CFD6011D1786B006828B144
:102AD00040F6D91223A128A0FDF7F0FB786BB96B63
:102AE0007963B863386A401C3862FEF731FFB86A10
:102AF000DFF89480854209D3786B006880B1786BE9
:102B0000C068C468606885420DD2B8623868C06A1F
:102B100000EB800158F821000128CCD90126CAE732
:102B20004FF0FF30F1E7201DFFF7E6F8A06A18B17B
:102B300004F11800FFF7E0F8E06A01213A698140EA
:102B40001143396100EB800108EB8100211DFFF783
:102B50000BF9E06A3968C96A8842CDD30126CBE710
:102B60004C0000202E2E5C4672656552544F535C1B
:102B70007461736B732E63004572726F723A2573C2
:102B80002C25640D0A000000C801002070B5040067
:102B90004FF000063CD01F4D2868844205D040F617
:102BA000C7621DA121A0FDF789FB206D28B940F661
:102BB000C96219A11DA0FDF781FB206D401E206593
:102BC000E26CE16A914223D010BB201DFFF794F81C
:102BD0001A49012250B9E06A00EB800351F8233012
:102BE00023B92B6902FA00F083432B61E06CE062A9
:102BF000C0F12000A061E06A2B6982401A432A617B
:102C000000EB800001EB8000211DFFF7ADF80126ED
:102C1000304670BD4C0000202E2E5C467265655219
:102C2000544F535C7461736B732E63004572726F03
:102C3000723A25732C25640D0A000000C80100209B
:102C40002DE9F041C068C4682CB940F6613216A184
:102C50001AA0FDF733FB04F118000746FFF74CF804
:102C60001A4D286B012660B139461948FFF77CF8E8
:102C7000E06A2968C96A884213D90120EE61BDE87B
:102C8000F081201DFFF738F8E06A2A6906FA00F1A2
:102C9000114329610F4900EB800001EB8000211DE9
:102CA000E4E70020EBE700002E2E5C4672656552DB
:102CB000544F535C7461736B732E63004572726F73
:102CC000723A25732C25640D0A0000004C00002088
:102CD00070040020C80100202DE9F0472B4D00248E
:102CE0002746286B28B94FF4FD6229A12DA0FDF7D6
:102CF000E5FAFFF745F8286B401E2863286BE8BB10
:102D0000A8682C490126C8B3A1F52A798846D8F8C5
:102D10000010E9B1D8F80C00C46804F11800FEF7FF
:102D2000EBFF201DFEF7E8FFE06A2A6906FA00F1D2
:102D30001143296100EB800109EB8100211DFFF7A0
:102D400013F8E06A2968C96A8842E0D3EE61DEE7D9
:102D50000CB1FEF7FDFDAC693CB1FFF7A3FE00B17D
:102D6000EE61641EF9D10020A861E86930B1124912
:102D7000012738070860BFF34F8F00E001E0BFF381
:102D80006F8FFFF739F83846BDE8F0874C00002018
:102D90002E2E5C4672656552544F535C7461736BA2
:102DA000732E63004572726F723A25732C25640D81
:102DB0000A0000007004002004ED00E02DE9F04757
:102DC0000746994616460D462C20DDF820A0FEF752
:102DD0009BFE040014D0B8464F46D1462DB94FF49F
:102DE000C67209A10EA0FDF769FAFEF7FBFA04F11D
:102DF0001801C4F8008081E8E002201DFEF799FF69
:102E00002046BDE8F08700002E2E5C4672656552B4
:102E1000544F535C74696D6572732E63000000003B
:102E20004572726F723A25732C25640D0A000000FA
:102E30001CB50024FEF7D6FA0C48006868B10B49AF
:102E40001F20091DCDE9000100234FF4827208A163
:102E50000948FFF7E7FD040005D140F2331207A14E
:102E60000CA0FDF72BFA20461CBD000088000020B6
:102E7000546D722053766300691A00082E2E5C464A
:102E800072656552544F535C74696D6572732E633D
:102E9000000000004572726F723A25732C25640D94
:102EA0000A0000002DE9FF47DDF830A09946904662
:102EB0000D4606004FF0000705D14FF4D37212A162
:102EC00017A0FDF7FBF91A4C206880B1CDE9005836
:102ED0000296062D11DAFFF7D1FD02284FF000030C
:102EE00009D0002269462068FFF724FC074604B099
:102EF0003846BDE8F0875246F4E700234A46694663
:102F0000FFF7DCFCF2E700002E2E5C46726565528E
:102F1000544F535C74696D6572732E63000000003A
:102F20004572726F723A25732C25640D0A000000F9
:102F30008800002030313233343536373839414259
:102F4000434445464030580030313233343536370B
:102F50003839616263646566403078007C2F000810
:102F600000000020C00000006C0100083C30000898
:102F7000C0000020785A00008801000800A24A041E
:102F80000000000000000000010203040607080919
:102F90000100000000000000000000000000000030
:102FA0000000000000000000000000000000000021
:102FB00000000000020406080000000001020304F3
:102FC00001020304060708090000000000000000D9
:102FD00000000000000000000000000000000000F1
:102FE00000000000000000000000000000000000E1
:102FF00000000000000000000000000000000000D1
:1030000000000000000000000000000000000000C0
:1030100000000000000000000000000000000000B0
:1030200000000000000000000000000000000000A0
:0C30300000000000AAAAAAAA00000000EC
:040000050800027974
:00000001FF
