:020000040800F2
:10000000101800207502000837080008E1070008F2
:10001000350800083D070008C10D00080000000079
:10002000000000000000000000000000DD010008EA
:100030003F0700080000000021020008550B0008DF
:100040008F0200088F0200088F0200088F0200084C
:100050008F0200088F0200088F0200088F0200083C
:100060008F0200088F0200088F0200088F0200082C
:100070008F0200088F0200088F0200088F0200081C
:100080008F0200088F0200088F0200088F0200080C
:100090008F0200088F0200088F0200088F020008FC
:1000A0008F0200088F0200088F0200088F020008EC
:1000B0008F0200088F0200088F0200088F020008DC
:1000C0008F0200088F0200088F0200088F020008CC
:1000D0008F020008250C00088F0200088F0200081C
:1000E0008F0200088F0200088F0200088F020008AC
:1000F0008F0200088F0200088F0200088F0200089C
:100100008F0200088F0200088F0200088F0200088B
:100110008F0200088F0200088F0200088F0200087B
:100120008F0200088F0200088F0200088F0200086B
:1001300000F002F800F042F80AA090E8000C8244B7
:100140008344AAF10107DA4501D100F037F8AFF294
:10015000090EBAE80F0013F0010F18BFFB1A43F0A5
:1001600001031847FC2900001C2A0000103A24BF94
:1001700078C878C1FAD8520724BF30C830C144BF0C
:1001800004680C607047000000230024002500264E
:10019000103A28BF78C1FBD8520728BF30C148BFEA
:1001A0000B607047642900F0F180732900F0FE8134
:1001B000002070471FB51FBD10B510BD00F08BFAB1
:1001C0001146FFF7F7FF00F0ABFE00F0A9FA03B409
:1001D000FFF7F2FF03BC00F0F4FD0000224B1968AA
:1001E0000868B0E8F00F80F30988BFF36F8F4FF015
:1001F000000080F311884EF00D0E704700000000E3
:1002000006480068006880F3088862B661B6BFF3EC
:100210004F8FBFF36F8F00DF00BF00BF08ED00E01E
:10022000EFF30980BFF36F8F0F4B1A6820E9F00FCF
:10023000106008B54FF0500080F31188BFF34F8F66
:10024000BFF36F8F01F0B8FE4FF0000080F311880C
:10025000BDE8084019680868B0E8F00F80F3098825
:10026000BFF36F8F704700BF44000020EFF305809D
:10027000704700000948804709480047FEE7FEE74D
:10028000FEE7FEE7FEE7FEE7FEE7FEE7FEE7FEE746
:1002900004480549054A064B70470000690B0008F1
:1002A0003101000810120020101800201014002046
:1002B00010140020704700000FB4044910B503AAC1
:1002C000029800F077F910BC5DF814FB2C000020B8
:1002D0002DE9F0410E460446002020622046E168E8
:1002E000884730B3252805D0D4E901219047206AFA
:1002F000401CF2E7E168204600278847050018D037
:10030000A5F14100192802D820354FF40067324684
:10031000294620462760FFF745FF40B1012804D059
:10032000F61D26F007060836D8E7361DD6E728461C
:10033000DAE7206ABDE8F08170B50C460546012A6F
:1003400005D02878800600D5EA69002302E0012361
:1003500005E05B1C934202D2E05C0028F9D1A86959
:10036000E618C01AA861286A184428622846AFF324
:10037000008004E0D5E9012114F8010B9047B44254
:10038000F8D32846AFF3008070BD00002DE9F0419E
:100390000646002410687529314616A510D0AFF323
:1003A0000080002802DA404213A507E031688A077E
:1003B00001D512A502E0490704D511A5012401E0E9
:1003C000AFF3008000210A2206F1240709E0B0FB08
:1003D000F2FCB0FBF2F302FB1C00303078541846FC
:1003E000491C0028F3D123462A463046BDE8F04197
:1003F00000F059B8000000002D0000002B000000A4
:1004000020000000032A40F2308010F0030C00F0BE
:10041000158011F8013BBCF1020F624498BF11F83E
:1004200001CB00F8013B38BF11F8013BA2F10402F7
:1004300098BF00F801CB38BF00F8013B11F003036F
:1004400000F0CA80083AC0F0088051F8043B083A2E
:1004500051F804CBA0E80810F5E7121D5CBF51F875
:10046000043B40F8043BAFF30080D20724BF11F8EF
:10047000013B11F801CB48BF11F8012B24BF00F854
:10048000013B00F801CB48BF00F8012B704702F098
:10049000FF0343EA032242EA024200F0D1B8704768
:1004A0007047704770472DE9F0470D4699469246D0
:1004B000044600F124080168880604D5E06921F0AB
:1004C0001001216000E00120A84201DD471B00E08F
:1004D0000027A1697A1902EB0900081AA0612078A7
:1004E000C00602D42046AFF30080002608E0D4E91D
:1004F00001211AF806009047206A401C761C2062F1
:100500004E45F4DB2078C0060AD52046AFF30080C4
:1005100006E0D4E9012130209047206A401C206287
:10052000381EA7F10107F4DC07E0D4E9012118F82F
:1005300005009047206A401C2062281EA5F1010595
:10054000F3DC2046AFF300802078000602D50220BD
:10055000BDE8F0870120FBE701694A1C02610878C9
:10056000704700B58FB0CDE90131002105910549F3
:100570007944CDE9031011466846FFF7A9FE0FB094
:1005800000BD0000E5FFFFFF10B5436913B1AFF3F5
:10059000008001E0FFF7D0FE012010BD127800F1CD
:1005A00024010A7000224A700122EDE711684FF021
:1005B000FF32E9E7074B70B50D467B44FFF7D1FFEB
:1005C0000446284600F05CF810B14FF0FF3070BDD3
:1005D000204670BDBB08000010B5203AC0F00B806B
:1005E000B1E81850203AA0E81850B1E81850A0E837
:1005F0001850BFF4F5AF5FEA027C24BFB1E8185091
:10060000A0E8185044BF18C918C0BDE810405FEA00
:10061000827C24BF51F8043B40F8043B08BF70477C
:10062000D20728BF31F8023B48BF11F8012B28BF81
:1006300020F8023B48BF00F8012B70474FF0000242
:100640000429C0F0128010F0030C00F01F80CCF1E0
:10065000040CBCF1020F18BF00F8012BA8BF20F852
:10066000022BA1EB0C0100F011B85FEAC17C24BFA2
:1006700000F8012B00F8012B48BF00F8012B704750
:10068000007B00F0800070474FF0000200B5134679
:1006900094469646203922BFA0E80C50A0E80C50A2
:1006A000B1F12001BFF4F7AF090728BFA0E80C5053
:1006B00048BF0CC05DF804EB890028BF40F8042B4C
:1006C00008BF704748BF20F8022B11F0804F18BFB9
:1006D00000F8012B7047754600F02CF8AE46050077
:1006E0006946534620F00700854618B020B5FFF74D
:1006F000CFFDBDE820404FF000064FF000074FF05F
:1007000000084FF0000B21F00701AC46ACE8C0092F
:10071000ACE8C009ACE8C009ACE8C0098D46704738
:1007200010B50446AFF300802046BDE81040FFF747
:100730004EBD000000487047B0110020FEE7704732
:10074000F0B5CC78002204F00F03E40601D58C78D4
:1007500023430C784FF00F0C14F0FF0F4FF0010EF5
:100760001BD005680E880EFA02F42640A64210D16E
:1007700096000CFA06F725EA070703FA06F5CE7885
:100780003D43282E02D0482E02D002E0446100E012
:100790000461521C082AE5D305600A88FF2A1CD987
:1007A0004468002202F108060EFA06F50E882E4073
:1007B000AE420ED196000CFA06F7BC4303FA06F7D8
:1007C000CE783C43282E00D14561CE78482E00D10A
:1007D0000561521C082AE5D34460F0BD01617047F1
:1007E000FEE7000038B50121482000F057F820242A
:1007F000ADF8004010208DF8030003200B4D8DF85C
:10080000020069462846FFF79BFF20212846FFF794
:10081000E5FFADF80040064C69462046FFF790FF23
:1008200020212046FFF7DAFF38BD0000000C014010
:1008300000180140FEE7704730B50F23C2780178F9
:100840000125F2B1144A126801F1E02102F4E062DC
:10085000C2F5E062120AC2F10404D3404278A24019
:1008600084781C401443220181F80024007800F0B1
:100870001F018D404009800000F1E020C0F80051C8
:1008800030BD01F01F0085404809800000F1E020E4
:10089000C0F8805130BD00000CED00E0044A002992
:1008A000916901D0014300E08143916170470000EC
:1008B0000010024030B5204A5168204B11F00C0165
:1008C00003D0042901D0082901D0036012E0516847
:1008D000536801F470114FF0020413F4803F04EBED
:1008E000914102D053689B0301D5154B00E0134B97
:1008F0005943016051680F2303EA1111114B5C5CED
:100900000168E14041605468072505EA14241C5D34
:1009100021FA04F48460546805EAD4241B5DD940AC
:10092000C1605268032303EA9232064B1B1F9A5C94
:10093000B1FBF2F1016130BD0010024000127A00FB
:1009400000093D00340000200CB50022264800922A
:100950000192016841F4803101604FF4A0630168A5
:1009600001F4003101910099491C0091019911B9DC
:1009700000999942F3D10168890333D5012101918E
:100980001A490A6842F010020A600A6822F003025B
:100990000A600A6842F002020A60416841604168E8
:1009A0004160416841F480614160416821F47C11FB
:1009B0004160416841F4E8114160016841F0807193
:1009C000016001688901FCD5416821F003014160A3
:1009D000416841F0020141604168C1F3810102298F
:1009E000FAD10CBD01920CBD001002400020024063
:1009F0003EB500F0DDFF204A012002F15C018DE8E8
:100A00000700002340221DA11E4801F037FE1E4CA6
:100A1000606008B11DA000E022A0FFF74DFC274A4E
:100A2000022002F15C018DE807000023402224A18E
:100A3000254801F023FEA06008B124A000E029A011
:100A4000FFF73AFC2D4A032002F15C018DE8070014
:100A5000002340222AA12C4801F010FEE06008B1DA
:100A60002AA000E02FA0FFF727FC206801F01CF966
:100A7000BDE83E4000F0D8BF140200205461736B03
:100A800031000000B90B0008140000205461736BA2
:100A900031C8CECEF1B4B4BDA8B3C9B9A6210D0AF0
:100AA000000000005461736B31C8CECEF1B4B4BD08
:100AB000A8CAA7B0DC210D0A0000000070030020C6
:100AC0005461736B32000000DD0B00085461736BDE
:100AD00032C8CECEF1B4B4BDA8B3C9B9A6210D0AAF
:100AE000000000005461736B32C8CECEF1B4B4BDC7
:100AF000A8CAA7B0DC210D0A00000000CC04002029
:100B00005461736B33000000010C00085461736B77
:100B100033C8CECEF1B4B4BDA8B3C9B9A6210D0A6D
:100B2000000000005461736B33C8CECEF1B4B4BD85
:100B3000A8CAA7B0DC210D0A000000004FF0E02198
:100B40000428086903D020F004000861704740F0D1
:100B50000400FAE710B501F0D7FD012803D0BDE885
:100B6000104001F0A3BA10BD0F4810B5016841F064
:100B70000101016041680D4A1140416001680C4A61
:100B800011400160016821F480210160416821F475
:100B9000FE0141604FF41F018160FFF7D5FE05495A
:100BA0004FF00060086010BD001002400000FFF828
:100BB000FFFFF6FE08ED00E04FF47A7403A0FFF7A4
:100BC0007BFB204601F03AF8F8E7000054686973AF
:100BD000206973205461736B310D0A004FF47A74ED
:100BE00003A0FFF769FB204601F028F8F8E70000B2
:100BF00054686973206973205461736B320D0A0065
:100C00004FF47A7403A0FFF757FB204601F016F863
:100C1000F8E7000054686973206973205461736BAE
:100C2000330D0A0070B5154C40F22551204600F0F6
:100C300035F800280ED0204600F0BEF8104AC1B2A8
:100C40001088030406D444044FF0000306D50A2993
:100C500001D0138070BD40F400400DE00D2909D093
:100C6000C0F30D04074D401C80B229551080C728E1
:100C7000EFD870BD40F48040108070BD0038014056
:100C800028000020F80C00200029818902D041F4BE
:100C9000005101E021F400518181704770B501F0ED
:100CA0001F0501260024C1F3421306FA05F2012BA9
:100CB0000FD0022B0FD0838A4FEA112100881342F4
:100CC00006FA01F600EA060001D000B10124204630
:100CD00070BD8389F0E7038AEEE710B5C1F34213D4
:100CE00001F01F040121A140012B07D0022B07D0E6
:100CF0001430002A026805D00A4304E00C30F8E7FB
:100D00001030F6E78A43026010BD000030B504469B
:100D1000008A85B00D464CF6FF710840E988014312
:100D20002182A0894EF6F3110840A9882A8911432F
:100D30006A8902431143A181A08A4FF6FF4108400E
:100D4000A9890143A1826846FFF7B4FD194884428E
:100D500001D1039800E00298A189090400EBC001C9
:100D600001EB0010296801D5490000E08900B0FBC3
:100D7000F1F06422B0FBF2F109010B096FF01805E4
:100D80006B4300EB8300A3891D044FF0320306D5AB
:100D900003EBC000B0FBF2F000F0070005E003EB4E
:100DA0000010B0FBF2F000F00F000843208105B006
:100DB00030BD0000003801408088C0F30800704753
:100DC000FEE7704710B50420FFF7B8FE0C480D4948
:100DD0000D4A0068B0FBF1F3B0FBF1F14FF47A700B
:100DE00041431370012050804FF0E020026942F02F
:100DF000020202614161016941F00101016110BD1E
:100E00000000002040420F002400002070B504467E
:100E100001F07AFC01280CD0094D6888844203D384
:100E2000B4FBF0F000F00AFF6888B4FBF0F100FBBF
:100E300011444FF47A706043BDE8704000F002B88E
:100E40002400002070B54FF0E02500216C69094AAC
:100E5000AB6912785043AA699A42FCD002D2A3EB44
:100E6000020302E0A4EB0206334419441346814214
:100E7000F1D370BD2400002004490A885206FCD535
:100E8000024AC1B2121D11807047000000380140B3
:100E90000EB50C4A012002F15C018DE80700002329
:100EA000402209A10C4801F0E9FB0C49086008B197
:100EB0000BA000E012A0FFF7FFF9BDE80E4001F023
:100EC0001DB80000B800002053746172745461733F
:100ED0006B43726561746500F1090008140000201D
:100EE00053746172745461736B437265617465C845
:100EF000CECEF1B4B4BDA8B3C9B9A6210D0A000085
:100F000053746172745461736B437265617465C824
:100F1000CECEF1B4B4BDA8CAA7B0DC210D0A000042
:100F20004FF4E13000F09AFCFFF75CFCFFF74AFF5A
:100F300009A0FFF7C1F9FFF7ABFF0B4C4FF47A752F
:100F4000D4F8940130B10021C4F894112846FFF779
:100F50005DFFF5E70121F7E748656C6C6F20576F7F
:100F6000726C64210D0A0000008021422DE9F041DD
:100F7000184E0F460446F5683068001D00F0BEFCB0
:100F800038B9306890F82C100120884031698143CD
:100F90003161601C07D137B13168BDE8F0410E48BE
:100FA000091D00F0F9BC30682C44AC424460316843
:100FB00005D2B06BBDE8F041091D00F0D5BC706BE7
:100FC000091D00F0D1FCB06A844200D2B462BDE8D1
:100FD000F081000044000020D01000202DE9F041F5
:100FE000054600F0E5FC2D4EB068401CB06030684E
:100FF0002B4F10B1706930B32BE03560B068012819
:1010000027D1002404EB840007EB800000F09EFC55
:10101000641C202CF6D3234800F098FC214814309F
:1010200000F094FC1F48283000F090FC1D483C3034
:1010300000F08CFC1B48503000F088FC19487063AD
:101040001430B06305E03068E96AC06A884200D8AD
:101050003560706A0121401C70626864E86A326918
:1010600081401143316100EB800007EB8000291DB6
:1010700000F092FC00F0D8FC706900280CD03068B9
:10108000E96AC06A884207D207494FF08050086079
:10109000BFF34F8FBFF36F8FBDE8F0814400002096
:1010A000000E00208010002004ED00E038B500F0B4
:1010B0007FFC104C2068C8B90F4800F047FC0E4870
:1010C000143000F043FC0C48E060143020610A4BFF
:1010D0000020A43B009003F154021021052000F0F1
:1010E000FBFF206010B105A100F074FDBDE83840A1
:1010F00000F09ABC8000002088110020546D7251CD
:101100000000000070B5124E124D1CE000F04CFFC4
:10111000306820B1002401F025FCA4B901E00124CD
:10112000F9E700F045FCF068C468201D00F0E6FB1C
:10113000A868401EA8606868401E686000F074FCE3
:10114000204600F053F868680028DFD170BD000029
:10115000BC1000204400002030B4026C0B46002A72
:101160000BD0C1681144C1604468A14201D3016839
:10117000C16030BC1846FFF745B930BC70472DE957
:10118000F041856B174604460026026C82B1C7B158
:10119000E068FFF737F9E168206C091AE16022681E
:1011A000914202D26168081AE060022F16D017E05F
:1011B0002068A8B9606801F02FFB06460020606037
:1011C0000EE0A068FFF71EF9216CA0680844A0603B
:1011D0006168884204D32068A06001E005B16D1EFB
:1011E0006D1CA5633046BDE8F081000010B50446D3
:1011F00090F8590058B101280CD002280FD0BDE852
:10120000104040F6296206A10AA0FFF755B8206BEE
:1012100000F03CFC2046BDE8104000F037BC10BD9B
:101220002E2E5C4672656552544F535C7461736B2D
:10123000732E63004572726F723A25732C25640D0C
:101240000A000000074E4FF08054074DFFF75AFF89
:1012500030680128FAD92C60BFF34F8FBFF36F8F2E
:10126000F4E70000000E002004ED00E070B51D461C
:10127000049C59B12260C4E90F010121204601F00C
:1012800031F884F850500020A06470BD2460F2E76B
:101290002DE9F047DDE909840E46174682469100A4
:1012A0009946089DA522206BFFF7F1F86FF0030126
:1012B000206B01EB8701084420F00707780705D071
:1012C00040F22B3219A11EA0FEF7F6FF00202218D3
:1012D000315C82F83410315C11B1401C1028F6D317
:1012E000002684F84360202D00D31F25E562C4E961
:1012F0001356201D00F035FB04F1180000F031FBFF
:101300002461C5F120006462A061666584F85860BC
:101310004A465146384600F08FFA2060B8F1000F77
:1013200001D0C8F80040BDE8F08700002E2E5C46D2
:1013300072656552544F535C7461736B732E630016
:101340004572726F723A25732C25640D0A000000F5
:1013500030B5114900E011460A688242FBD34B6860
:101360005C18844203D140681844486008464368CA
:101370001C18944209D1084C103C2468A24209D0A0
:1013800052681A4442600A6812680260814200D0C2
:10139000086030BD0460F9E7A400002070B50024A7
:1013A00041600B4D0061914206D8D11A8269914289
:1013B00006D2011D286907E09A4203D2994201D35F
:1013C000012403E0011DE86800F0CEFA204670BD5C
:1013D0008000002010B5044600F0EAFAA06B20B1AE
:1013E000002400F021FB204610BD0124F9E7000095
:1013F0002DE9F34100980F460026846C2CB940F685
:10140000CE1216A11AA0FEF757FFA06BE16B88421F
:1014100005D340F6CF1211A115A0FEF74DFFA06B2A
:10142000E16B88420CD294F945503A466946204611
:10143000FFF7A5FE0646681C05D06D1C84F84550D4
:101440003046BDE8FC81606A0028F9D004F1240030
:1014500001F03CFA0028F3D00126F1E72E2E5C467D
:1014600072656552544F535C71756575652E6300E6
:101470004572726F723A25732C25640D0A000000C4
:10148000F8B5054614480E46C068C068C468201DFB
:1014900000F034FAE069012817D1A0692B46411900
:1014A00032462046FFF77AFF78B100200346014616
:1014B00000902A46204601F00BFB30B907494FF453
:1014C000027201F11800FEF7F7FE616A01B02046D2
:1014D000BDE8F0400847000080000020F416000836
:1014E00070B586B0314E56E00198002806DADDE985
:1014F0000301029A9047019800284CDB039C606925
:1015000010B1201D00F0FAF905A800F0ABF805466F
:1015100001980A283FD2DFE800F00505053E27388C
:1015200005053E270298A169034601442A46204644
:10153000FFF734FF00282ED0616A20468847E06913
:10154000012828D1002000900298A16900234218A8
:101550001946204601F0BCFAE8B940F2213214A144
:1015600019A0FEF7A9FE16E00298A06128B94FF471
:101570004E720FA114A0FEF79FFEA0692B464119E1
:101580001A462046FFF70AFF05E094F82C0010B930
:10159000204600F07BFA00231A4601A9306800F0CB
:1015A000DFFD0028A0D106B070BD00008000002043
:1015B0002E2E5C4672656552544F535C74696D659E
:1015C00072732E63000000004572726F723A2573C9
:1015D0002C25640D0A000000F8B50D46064600F003
:1015E000E3FC684600F03EF80446009810B101F0B4
:1015F000B9F9F8BD1148ADB101690968D9B1002543
:10160000311B2A46006800F0F7FA01F0ABF9002818
:10161000EFD10B494FF080500860BFF34F8FBFF3FD
:101620006F8FF8BDA642EBD801F09CF921463046F9
:10163000FFF726FFF8BD0125E2E70000800000204B
:1016400004ED00E00648416B096829B1416BC968A7
:10165000C9684968816270474FF0FF31FAE70000BE
:101660004400002070B5054601F05CF8064E0446C3
:10167000B068844203D200F009F8012000E00020A5
:1016800028602046B46070BD80000020F8B5184E78
:1016900025E0C068C4680568201D00F02FF9616A64
:1016A00020468847E069012819D1A0692844A8424A
:1016B00006D924616060211DF06800F055F90EE044
:1016C00000200346014600902A46204601F000FA19
:1016D00028B940F2923207A10CA0FEF7EDFDF068A8
:1016E00001680029D5D13169C6E90310F8BD0000B1
:1016F000800000202E2E5C4672656552544F535C6C
:1017000074696D6572732E63000000004572726F1C
:10171000723A25732C25640D0A00000008484068C1
:10172000401C04D0F42207A111A0FEF7C5FD5020F3
:1017300080F31188BFF34F8FBFF36F8FFEE7000078
:10174000AC0000202E2E5C4672656552544F535CEF
:10175000706F727461626C655C525644535C4152A6
:101760004D5F434D335C706F72742E630000000058
:101770004572726F723A25732C25640D0A000000C1
:10178000084CE068016839B1002139B10020FFF749
:1017900023FFFFF7A5FEF4E70121F6E7C068006824
:1017A000F5E70000800000202DE9F041044600F03C
:1017B000FFF894F9455004F1240610E0A06C20B124
:1017C00000212046FFF714FE04E0606A48B130466D
:1017D00001F07CF808B100F0CDFA6D1E6DB2002D5D
:1017E000ECDC4FF0FF3684F8456000F01DF900F0A6
:1017F000DFF894F9445004F1100709E0206948B17A
:10180000384601F063F808B100F0B4FA6D1E6DB20D
:10181000002DF3DC84F84460BDE8F04100F004B929
:101820000449086818B10868026D521C026508680E
:10183000704700004400002010B5031F4FF0807473
:101840001C601B1F21F001011960191F024B0B6066
:10185000143940380A6010BD1D17000870B50546E0
:1018600086B0012144F20400FFF718F84FF400702D
:10187000ADF8100003248DF8124018201D4E8DF88D
:10188000130004A93046FEF75BFF3015ADF81000D9
:1018900004208DF8130004A93046FEF751FF2520DF
:1018A0008DF814008DF815408DF8164001208DF844
:1018B000170005A8FEF7C0FF0020ADF80400ADF842
:1018C0000600ADF80800ADF80C000C200A4CADF88D
:1018D0000A00009569462046FFF718FA012240F2F7
:1018E00025512046FFF7F9F901212046FFF7CCF9F1
:1018F00006B070BD0008014000380140D0E9013257
:1019000001699A60D0E901235A604A68824201D194
:1019100082684A60002202610868401E08607047C1
:10192000034B036003F15C00086082201060704785
:1019300028060020044B036003F15C0008604FF4AC
:1019400082701060704700008C08002000F10801D0
:101950004FF0FF32C0E90112C16001610021016056
:10196000704700210161704730B50C68621C02D0DD
:1019700000F1080202E0026904E01A4653681D689B
:10198000A542FAD953684B6099608A60516008613A
:101990000168491C016030BD42684A6093688B60F1
:1019A00093685960916008610168491C0160704743
:1019B000502080F31188BFF34F8FBFF36F8F094919
:1019C0004868401C486001280AD10748006810F0A8
:1019D000FF0F05D04FF4BD7204A10FA0FEF76CBC41
:1019E00070470000AC00002004ED00E02E2E5C46A5
:1019F00072656552544F535C706F727461626C65AE
:101A00005C525644535C41524D5F434D335C706FA2
:101A100072742E63000000004572726F723A257373
:101A20002C25640D0A00000010B5084C606828B928
:101A300040F2811206A111A0FEF73EFC6068401E34
:101A4000606001D180F3118810BD0000AC0000205F
:101A50002E2E5C4672656552544F535C706F7274E3
:101A600061626C655C525644535C41524D5F434D1C
:101A7000335C706F72742E63000000004572726FE9
:101A8000723A25732C25640D0A00000070B50028F9
:101A90002AD0164DA0F108046068E968084205D113
:101AA0004FF4A07212A11CA0FEF706FC206828B11A
:101AB00040F241120EA118A0FEF7FEFB6068E96833
:101AC000084211D02268002A0ED18843606000F0DD
:101AD0006BFA60686968084468602046FFF738FC64
:101AE000BDE8704000F03EBF70BD000094000020D3
:101AF0002E2E5C4672656552544F535C706F727443
:101B000061626C655C4D656D4D616E675C686561B9
:101B1000705F342E630000004572726F723A257355
:101B20002C25640D0A00000006484FF47A71006805
:101B3000B0FBF1F14FF0E020491E41610721016146
:101B4000704700000000002010B5FEF78FFB104C1E
:101B500010280CD300F1E02090F8F003217888429F
:101B600005D24FF42A720BA115A0FEF7A5FB184869
:101B70000068A16800F4E060884207D9BDE8104021
:101B80004FF42E7203A10EA0FEF796BB10BD00000D
:101B9000AC0000202E2E5C4672656552544F535C9B
:101BA000706F727461626C655C525644535C415252
:101BB0004D5F434D335C706F72742E630000000004
:101BC0004572726F723A25732C25640D0A0000006D
:101BD0000CED00E010B5074B002253F832401CB169
:101BE000521C082AF9D310BD43F8321003EBC2018E
:101BF000486010BDC00D002070B515460E46044665
:101C0000FFF7D6FE94F944100020491C01D184F856
:101C1000440094F94510491C01D184F84500FFF7B0
:101C200003FFA06B28B92A46314604F1240000F0D6
:101C3000D1F82046BDE87040FFF7B6BD10B50400EE
:101C400012D00E49096B29B140F2CF420CA111A06C
:101C5000FEF732FB00F0A8F900212046FFF786F9D5
:101C600000F080FE002807D10E494FF08050086038
:101C7000BFF34F8FBFF36F8F10BD000044000020F3
:101C80002E2E5C4672656552544F535C7461736BC3
:101C9000732E63004572726F723A25732C25640DA2
:101CA0000A00000004ED00E070B50446FFF780FE76
:101CB000234D04B92C68201DFFF720FE58B9E06AB7
:101CC000204A00EB800152F8211021B90121814006
:101CD000286988432861A06A18B104F11800FFF749
:101CE0000DFE686A401C68622868844207D1211D85
:101CF0001548FFF751FE6868401C686007E0A86857
:101D0000401EA8602046FFF771FAFFF79BFCFFF723
:101D10008BFE6869002812D0286884420FD1286B96
:101D200028B140F2654209A10DA0FEF7C5FA10499D
:101D30004FF080500860BFF34F8FBFF36F8F70BDBF
:101D400044000020000E0020BC1000202E2E5C4617
:101D500072656552544F535C7461736B732E6300EC
:101D60004572726F723A25732C25640D0A000000CB
:101D700004ED00E001490120C861704744000020E3
:101D800070B50D46040005D140F6063207A10CA03F
:101D9000FEF792FA0E48016820461831FFF7E4FD7D
:101DA0002846BDE870400121FFF7E0B82E2E5C46C2
:101DB00072656552544F535C7461736B732E63008C
:101DC0004572726F723A25732C25640D0A0000006B
:101DD0004400002070B514460E46050005D140F6BB
:101DE000313209A10DA0FEF767FA104801682846B4
:101DF0001831FFF7D1FD0CB14FF0FF3621463046C8
:101E0000BDE87040FFF7B2B82E2E5C467265655291
:101E1000544F535C7461736B732E63004572726F21
:101E2000723A25732C25640D0A000000440000203E
:101E300070B5040039D01D4DE06A2968C96A88422E
:101E400033D2A069002804DB2868C06AC0F12000F2
:101E5000A061E06A164E00EB8000616906EB80002D
:101E600081421FD1201DFFF749FD012150B9E06AD1
:101E700000EB800256F8222022B92A6901FA00F00C
:101E800082432A612868C06AE0622A69814011435E
:101E9000296100EB800006EB8000211DBDE8704049
:101EA000FFF77ABD2868C06AE06270BD4400002078
:101EB000000E002010B5040005D140F6C13205A186
:101EC00009A0FEF7F9F90C48016A2160C06860605A
:101ED00010BD00002E2E5C4672656552544F535C57
:101EE0007461736B732E63004572726F723A25735F
:101EF0002C25640D0A0000004400002030B587B096
:101F00000025039505AA04A903A80495FFF708FD79
:101F1000DDE903010095CDE90110002315A1174863
:101F2000059A00F0ABFB164CE06218B100F08CFD96
:101F300001280AD0401C1AD107B040F28472BDE8D3
:101F4000304010A114A0FEF7B7B9502080F31188DB
:101F5000BFF34F8FBFF36F8F4FF0FF30A0620120B0
:101F60006061E56007B0BDE8304000F063B807B0DD
:101F700030BD000049444C450000000045120008F7
:101F8000440000202E2E5C4672656552544F535C0F
:101F90007461736B732E63004572726F723A2573AE
:101FA0002C25640D0A0000000248016B491C0163E6
:101FB000704700004400002070B5134D286B10B12D
:101FC0000120E86170BD0020E86128690F4EB0FA79
:101FD00080F0C0F11F0000EB800456F8240028B9FF
:101FE00040F6F6220AA10FA0FEF766F906EB840080
:101FF00000F10802416849684160914201D1496895
:102000004160C868286070BD44000020000E0020B8
:102010002E2E5C4672656552544F535C7461736B2F
:10202000732E63004572726F723A25732C25640D0E
:102030000A0000001CB51A4908780190FF200870BA
:1020400008788DF800009DF80000164A00F0500056
:1020500010700720906007E09068401E90609DF827
:10206000000040008DF800009DF800000006F3D449
:10207000107A000200F4E0609060019808700A484D
:10208000016841F470010160016841F07041016034
:10209000FFF74AFD00205060FEF7B2F800201CBD9B
:1020A00000E400E0AC00002020ED00E010B550207E
:1020B00080F31188BFF34F8FBFF36F8F00F038FBB1
:1020C00018B104494FF080500860002080F3118857
:1020D00010BD000004ED00E02DE9F843DDF820809C
:1020E0001C4616460D46070005D14FF4A97213A1F0
:1020F00017A0FEF7E1F82CB94FF4AB720FA114A0B2
:10210000FEF7DAF81EB14DB94FF4AD7202E02DB111
:1021100040F25B1209A10EA0FEF7CEF85420009009
:102120004CB1012084F846004346324629463846E1
:102130000094FFF79BF82046BDE8F8832E2E5C46FE
:1021400072656552544F535C71756575652E6300F9
:102150004572726F723A25732C25640D0A000000D7
:102160002DE9FF4F83B09B468A4604004FF00006DE
:1021700005D140F2DC4251A155A0FEF79DF8BAF11D
:10218000000F07D1206C28B140F2DD424BA150A0D6
:10219000FEF792F800F0B8FA38B9059828B14FF474
:1021A0009C6246A14AA0FEF787F84FF000094FF065
:1021B0008057DFF82C81FFF7FBFBA56B45B3514639
:1021C0002046E668FEF7C8FFBBF1000F13D0E660BB
:1021D000606A50B104F1240000F078FB28B1C8F81F
:1021E0000070BFF34F8FBFF36F8FFFF71DFC01200F
:1021F00007B0BDE8F08F6D1EA563206810B9FFF72A
:102200000FFB606020690028EFD004F11000E3E7C5
:10221000059808B11EB106E0FFF706FC27E0684606
:10222000FFF748FE0126FFF7FFFBFFF7BDFEFFF7B4
:10223000BFFB94F94400401C01D184F8449094F908
:102240004500401C01D184F84590FFF7EDFB05A93E
:10225000684600F0CFF9002820460AD0FFF7A4FA1C
:1022600000F080FB2046FFF7B5F80028A3D000203F
:10227000BEE7FFF7AFF8D8B1206830B9FFF798FB99
:102280006068FFF7D5FDFFF7CFFB04F12400059947
:10229000FFF776FD2046FFF787FA00F063FB002882
:1022A00089D1C8F80070BFF34F8FBFF36F8F82E7FB
:1022B0002046FFF779FA00F055FB7CE72E2E5C46AE
:1022C00072656552544F535C71756575652E630078
:1022D0004572726F723A25732C25640D0A00000056
:1022E00004ED00E070B50D46040005D140F21B126C
:1022F0001CA121A0FDF7E0FFFFF75AFBD4E90F2056
:10230000216802FB001161600021A1632168A160C6
:102310000A46D4E90F01401E00FB0121E16021467D
:102320004FF0FF3001F8440F487004F110004DB138
:10233000FFF70CFB04F12400FFF708FBFFF774FB29
:10234000012070BD21690029F8D000F0BFFA0028F3
:10235000F4D00D494FF080500860BFF34F8FBFF3AA
:102360006F8FEBE72E2E5C4672656552544F535CBF
:1023700071756575652E63004572726F723A2573CB
:102380002C25640D0A00000004ED00E02DE9FF4F4C
:1023900083B099468B4604004FF0000605D140F209
:1023A000D92252A156A0FDF787FFBBF1000F07D13C
:1023B000206C28B140F2DA224CA151A0FDF77CFF3D
:1023C000B9F1020F08D1E06B012805D040F2DB2201
:1023D00046A14BA0FDF770FF00F096F938B90598BB
:1023E00028B140F2DE2241A145A0FDF765FF4FF084
:1023F000000A4FF08057DFF81881FFF7D9FAA06B79
:10240000E16B884206D3B9F1020F03D0059800B3FF
:1024100016B325E04A4659462046FEF7B0FEA16CA9
:1024200021B149462046FEF7E3FF05E0616A19B194
:1024300004F1240000F04AFA28B1C8F80070BFF394
:102440004F8FBFF36F8FFFF7EFFA012007B0BDE8A2
:10245000F08FFFF7E9FA21E06846FFF72BFD012630
:10246000FFF7E2FAFFF7A0FDFFF7A2FA94F94400A4
:10247000401C01D184F844A094F94500401C01D1CE
:1024800084F845A0FFF7D0FA05A9684600F0B2F835
:1024900030B12046FFF788F900F064FA0020D5E754
:1024A000FFF786FAA06BE16B884201D1012500E0BD
:1024B0000025FFF7B9FA95B104F110000599FFF76F
:1024C0005FFC2046FFF770F900F04CFA002894D129
:1024D000C8F80070BFF34F8FBFF36F8F8DE72046B2
:1024E000FFF762F900F03EFA87E700002E2E5C4607
:1024F00072656552544F535C71756575652E630046
:102500004572726F723A25732C25640D0A00000023
:1025100004ED00E02DE9F047984615468946040091
:1025200005D140F29F322AA12EA0FDF7C5FEB9F1D8
:10253000000F07D1206C28B14FF4687224A129A0A4
:10254000FDF7BAFEB8F1020F08D1E06B012805D003
:1025500040F2A1321EA123A0FDF7AEFEFFF7F4FA70
:102560005020EFF3118780F31188BFF34F8FBFF333
:102570006F8FA06BE16B884207D3B8F1020F04D0D4
:10258000002087F31188BDE8F08794F94560424642
:1025900049462046FEF7F3FD701C04D0761C84F8F3
:1025A00045600120EDE7A06C012620B141462046A0
:1025B000FEF71EFF06E0606A0028F2D004F1240056
:1025C00000F084F90028ECD0002DEAD02E60E8E776
:1025D0002E2E5C4672656552544F535C717565755D
:1025E000652E63004572726F723A25732C25640D57
:1025F0000A00000070B50D46040005D140F6CB324C
:1026000014A119A0FDF758FE2DB940F6CC3211A146
:1026100015A0FDF751FEFFF7CBF9174AD0682968DE
:102620004B1C0FD02368126A934202D06268824228
:102630000AD96268801A884206D2081A28602046A1
:10264000FFF738FC002400E00124FFF7EDF92046F5
:1026500070BD00002E2E5C4672656552544F535C6F
:102660007461736B732E63004572726F723A2573D7
:102670002C25640D0A000000440000202DE9F04FD5
:1026800085B09846DDE90F540E9F91468A468346F1
:102690002DB940F2552213A117A0FDF70DFE00261B
:1026A000A4B1CDB10220256384F859000DF1040CCA
:1026B00004A800978CE8510043464A4651465846C4
:1026C000FEF7E6FD2046FEF789FC06E040F25622C2
:1026D00004A109A0FDF7F0FD0496049805B0BDE83B
:1026E000F08F00002E2E5C4672656552544F535C8D
:1026F0007461736B732E63004572726F723A257347
:102700002C25640D0A0000000548416919B1006BD1
:1027100018B1002070470120704702207047000068
:10272000440000200148C0687047000044000020B9
:102730002DE9F0412D4F0026386B40B1B869401C9F
:10274000B861F86900B101263046BDE8F081FD6846
:102750006D1CFD6011D1786B006828B140F6D9126C
:1027600023A128A0FDF7A8FD786BB96B7963B86346
:10277000386A401C3862FEF765FFB86ADFF894805B
:10278000854209D3786B006880B1786BC068C468F3
:10279000606885420DD2B8623868C06A00EB80017B
:1027A00058F821000128CCD90126CAE74FF0FF30A4
:1027B000F1E7201DFFF7A2F8A06A18B104F1180094
:1027C000FFF79CF8E06A01213A69814011433961C1
:1027D00000EB800108EB8100211DFFF7DDF8E06AC6
:1027E0003968C96A8842CDD30126CBE7440000206E
:1027F0002E2E5C4672656552544F535C7461736B48
:10280000732E63004572726F723A25732C25640D26
:102810000A000000000E002070B504004FF0000612
:102820003CD01F4D2868844205D040F6C7621DA1E8
:1028300021A0FDF741FD206D28B940F6C96219A11C
:102840001DA0FDF739FD206D401E2065E26CE16A98
:10285000914223D010BB201DFFF750F81A490122E6
:1028600050B9E06A00EB800351F8233023B92B699B
:1028700002FA00F083432B61E06CE062C0F12000BB
:10288000A061E06A2B6982401A432A6100EB800054
:1028900001EB8000211DFFF77FF80126304670BD57
:1028A000440000202E2E5C4672656552544F535CE6
:1028B0007461736B732E63004572726F723A257385
:1028C0002C25640D0A000000000E00202DE9F041C7
:1028D000C068C4682CB940F6613216A11AA0FDF791
:1028E000EBFC04F118000746FFF708F81A4D286BB7
:1028F000012660B139461948FFF74EF8E06A2968A9
:10290000C96A884213D90120EE61BDE8F081201D1B
:10291000FEF7F4FFE06A2A6906FA00F11143296123
:102920000F4900EB800001EB8000211DE4E700204F
:10293000EBE700002E2E5C4672656552544F535CE7
:102940007461736B732E63004572726F723A2573F4
:102950002C25640D0A00000044000020A81000206F
:10296000000E00202DE9F0472B4D00242746286B50
:1029700028B94FF4FD6229A12DA0FDF79DFCFFF7BA
:1029800017F8286B401E2863286BE8BBA8682C4901
:102990000126C8B3A1F52A798846D8F80010E9B114
:1029A000D8F80C00C46804F11800FEF7A7FF201D3A
:1029B000FEF7A4FFE06A2A6906FA00F111432961D3
:1029C00000EB800109EB8100211DFEF7E5FFE06AC5
:1029D0002968C96A8842E0D3EE61DEE70CB1FEF7F0
:1029E00031FEAC693CB1FFF7A3FE00B1EE61641E9D
:1029F000F9D10020A861E86930B1124901273807F0
:102A00000860BFF34F8F00E001E0BFF36F8FFFF767
:102A10000BF83846BDE8F087440000202E2E5C46B7
:102A200072656552544F535C7461736B732E63000F
:102A30004572726F723A25732C25640D0A000000EE
:102A4000A810002004ED00E030B587B00024FEF7A8
:102A50002DFB114D2868B0B100200390049005AA09
:102A600004A903A8FEF766FFDDE903211F208DE816
:102A70000700002309A10B48059AFFF7FFFD6860D6
:102A800008B1012405E040F2331207A10CA0FDF7C4
:102A900013FC07B0204630BD80000020546D72202A
:102AA00053766300811700082E2E5C4672656552CE
:102AB000544F535C74696D6572732E63000000009F
:102AC0004572726F723A25732C25640D0A0000005E
:102AD0002DE9FF47DDF830A0994690460D460600E7
:102AE0004FF0000705D14FF4D37212A117A0FDF7E4
:102AF000E3FB1A4C206880B1CDE900580296062D00
:102B000011DAFFF701FE02284FF0000309D000227E
:102B100069462068FFF73AFC074604B03846BDE82E
:102B2000F0875246F4E700234A466946FFF7F2FC75
:102B3000F2E700002E2E5C4672656552544F535CDE
:102B400074696D6572732E63000000004572726FC8
:102B5000723A25732C25640D0A00000080000020C5
:102B6000802B000800000020B80000006C01000865
:102B7000382C0008B8000020581700008801000811
:102B800000A24A040000000000000000010203044B
:102B90000607080900000000000000000000000017
:102BA0000000000000000000000000000000000025
:102BB00002040608000000000102030401020304ED
:102BC00006070809000000000000000000000000E7
:102BD00000000000000000000000000000000000F5
:102BE00000000000000000000000000000000000E5
:102BF00000000000000000000000000000000000D5
:102C000000000000000000000000000000000000C4
:102C100000000000000000000000000000000000B4
:102C200000000000000000000000000000000000A4
:082C3000AAAAAAAA00000000F4
:040000050800027578
:00000001FF
